:100000000C94230E0C9400000C9400000C9400003F
:100010000C9400000C9400000C9400000C94FE2D35
:100020000C9400000C9400000C9400000C941A2E08
:100030000C9400000C9400000C9400000C94000040
:100040000C94082E8111530F940D260CF40AF0091C
:1000500011095008A6070F0789061006A3053F05DA
:10006000E40491044304FC03B9037A033F03070348
:10007000D1029E026D023E020F02E101B201820135
:100080004E010F01EE59CB52AD4C6047BC42A43E2D
:10009000003BBF37D0342932C02F8C2D872BAC29A1
:1000A000F5275E26E52485233D220A21EA1FDC1E72
:1000B000DD1DED1C0A1C331B681AA719F018411826
:1000C0009B17FD166516D5154A15C6144714CD1392
:1000D0005813E7127B121312AE114E11F0100000EC
:1000E000BA03870358032E030703E402C302A402E2
:1000F0008802000000000000000000000000000076
:1001000000000000000000000000000000000000EF
:10011000000000000000820086008E009E00BE00ED
:10012000FF03BE009E008E008600820000000000DB
:100130000000000000008200C200E200F200FA00AD
:10014000FF03FA00F200E200C2008200000000009B
:1001500000000000000086018601860186018601FC
:100160008703860186018601860186010000000062
:100170000000000078008400020102010201020177
:100180000201840048004800480086010000000089
:10019000000000000000000000000000820082005B
:1001A0008200820082008200C600BA0002000200C3
:1001B000020000000000FE03020002000200020034
:1001C00003000200020002000200FE030000000023
:1001D000000000000000FF0100010001000100011B
:1001E00000030001000100010001FF010000000008
:1001F0000000440000000000100038002800480003
:1002000044008400FE00020102010102000000001F
:100210000000440000000000780084000201020198
:1002200002010201020102018400780000000000C6
:100230000000440000000000820082008200820072
:10024000820082008200820044003C000000000026
:10025000000000001C0022002200220012001200F8
:1002600012002200420082008200720000000000A2
:100270000000000000002400000000003C004000DE
:1002800040007800440042006200DC0000000000F2
:1002900000000000000024000000000038004400BE
:1002A00082008200820082004400380000000000CA
:1002B0000000000000002400000000004200420096
:1002C000420042004200420062005C000000000068
:1002D00000000000100028001000000000000000D6
:1002E000000000000000000000000000000000000E
:1002F00000000000000000000000000000000000FE
:1003000000000000000000000000000000000000ED
:10031000000000001000100010001000100010007D
:10032000100010001000000010001000000000007D
:1003300000000000440044004400440000000000AD
:1003400000000000000000000000000000000000AD
:10035000000000009000900048004800FE014800A6
:100360002400FF01240024001200120000000000FD
:1003700000002000F8002C00240024002800300099
:100380006000E000A000A000A4007C0020000000AD
:10039000000000000E021101910051004E002000EB
:1003A0001000C801280224022202C101000000003E
:1003B00000000000380044004400640038000C00D5
:1003C0001202310221014101C200FC0100000000C3
:1003D00000000000100010001000100000000000DD
:1003E000000000000000000000000000000000000D
:1003F00000000000800160003000100008000800CC
:1004000008000800080008001000300060008001AB
:1004100000000000060018003000200040004000EE
:10042000400040004000400020003000180006005E
:100430000000000010001000D6006C0028003800FA
:100440002800000000000000000000000000000084
:10045000000000000000000000000000100010007C
:1004600010001000FF01100010001000000000003C
:10047000000000000000000000000000000000007C
:10048000000000000000000018001800100010001C
:100490000800000000000000000000000000000054
:1004A0000000FC0000000000000000000000000050
:1004B000000000000000000000000000000000003C
:1004C00000000000000000001800180000000000FC
:1004D000000000000001800080004000400020007B
:1004E00020001000100008000800040004000200B2
:1004F00000000000380044004400820082008200B6
:1005000082008200820044004400380000000000A5
:100510000000000010001E0010001000100010006D
:1005200010001000100010001000FE00000000007D
:10053000000000003E00420040004000400020005B
:10054000200010000800040002007E0000000000EF
:10055000000000003C004000400040004000380027
:10056000400040004000400040003C00000000000F
:100570000000000020003000280028002400220095
:1005800022002100FF0020002000200000000000C9
:10059000000000007C000400040004001C00200097
:1005A000400040004000400020001C00000000000F
:1005B0000000000078000400040002003A00460039
:1005C00082008200820082004400380000000000A7
:1005D00000000000FE00800040002000200010000D
:1005E00010000800080008000400040000000000DB
:1005F000000000007C00820082008200640018007D
:10060000640042008200820042003C0000000000C2
:100610000000000038004400820082008200820056
:10062000C400B8008000400040003C000000000012
:10063000000000000000000000000000180018008A
:10064000000000000000000018001800000000007A
:10065000000000000000000000000000180018006A
:10066000000000000000000018001800100010003A
:100670000800000000000000000000000001C000B1
:1006800030000C000C003000C00000010000000031
:10069000000000000000000000000000000000005A
:1006A000FE0100000000FE0100000000000000004C
:1006B00000000000000000000000000002000C002C
:1006C0003000C000C00030000C000200000000003C
:1006D000000000007E00C200820080004000200078
:1006E00010000800080000000800080000000000DA
:1006F0000000000078008400E20093008900890077
:10070000C900C900E900B20346007C0000000000F7
:100710000000000000000000100038002800480021
:1007200044008400FE0002010201010200000000FA
:1007300000000000000000007E00820082004200F5
:100740003E0042008200820082007E000000000025
:100750000000000000000000F80086000200010018
:1007600001000100010002000600F8000000000086
:1007700000000000000000003E00420082008200F5
:10078000820082008200820042003E0000000000E1
:100790000000000000000000FE0002000200020055
:1007A00002007E00020002000200FE0000000000C5
:1007B0000000000000000000FE0002000200020035
:1007C00002007E00020002000200020000000000A1
:1007D0000000000000000000F0010C010400020015
:1007E0000200C201020104010C01F001000000003E
:1007F00000000000000000008200820082008200F1
:100800008200FE0082008200820082000000000060
:100810000000000000000000FE00100010001000AA
:1008200010001000100010001000FE00000000007A
:100830000000000000000000780040004000400080
:10084000400040004000400040003C00000000002C
:1008500000000000000000008200420022001200A0
:100860000E000A0012006200820002010000000077
:100870000000000000000000020002000200020070
:1008800002000200020002000200FE000000000060
:100890000000000000000000C300C300C700A50066
:1008A000A500AD00990099008100810000000000C2
:1008B0000000000000000000820086008A008A001C
:1008C00092009200A200A200C2008200000000007C
:1008D0000000000000000000780084000201020116
:1008E0000201020102010201840078000000000000
:1008F00000000000000000007E00820082008200F4
:1009000042003E000200020002000200000000005F
:1009100000000000000000007800840002010201D5
:1009200002010201020102018400780040008001FE
:1009300000000000000000003E00420042004200B3
:1009400022001E001200220042008200000000006F
:100950000000000000000000FC0082000200060011
:100960001800600080008000C2003E00000000000F
:100970000000000000000000FF0110001000100047
:100980001000100010001000100010000000000007
:10099000000000000000000082008200820082004F
:1009A000820082008200820044003C0000000000BF
:1009B00000000000000000000102020102018400AA
:1009C000840044004800480030003000000000006F
:1009D00000000000000000000102010212013201CB
:1009E00032012A014A01CC00CC0084000000000042
:1009F0000000000000000000010202018400480025
:100A000030003000480084000201010200000000B4
:100A10000000000000000000010202018400440008
:100A2000280010001000100010001000000000004E
:100A30000000000000000000FE01000180004000F6
:100A400020001000080004000200FE010000000069
:100A500000000000F8000800080008000800080076
:100A60000800080008000800080008000800F80056
:100A7000000000000200040004000800080010004C
:100A80001000200020004000400080008000000195
:100A9000000000003E002000200020002000200078
:100AA00020002000200020002000200020003E0028
:100AB00000000000200020003000500058004800D6
:100AC0008800840084000201000000000000000093
:100AD0000000000000000000000000000000000016
:100AE000000000000000000000000000FF03000004
:100AF00000001000200000000000000000000000C6
:100B000000000000000000000000000000000000E5
:100B10000000000000000000000000003C00400059
:100B200040007800440042006200DC000000000049
:100B30000000000002000200020002007A004600ED
:100B4000820082008200820046003A00000000001D
:100B5000000000000000000000000000F800040099
:100B600002000200020002000400F8000000000081
:100B7000000000008000800080008000B800C400F9
:100B80008200820082008200C400BC0000000000DD
:100B90000000000000000000000000007800840059
:100BA0008200FE00020002000400F80000000000C5
:100BB00000000000E001180008000800FE01080025
:100BC00008000800080008000800080000000000F5
:100BD000000000000000000000000000B800C40099
:100BE0008200820082008200C400BC0080004000BD
:100BF0003C000000020002000200020072008A00B5
:100C000086008200820082008200820000000000D4
:100C10000000000018001800000000001E00100076
:100C20001000100010001000100010000000000064
:100C30000000000030003000000000003C002000F8
:100C400020002000200020002000200020002000A4
:100C50001E0000000200020002000200820062008A
:100C600012000E000A003200420082000000000064
:100C7000000000003C002000200020002000200098
:100C800020002000200020002000200000000000A4
:100C9000000000000000000000000000CD00330153
:100CA00011011101110111011101110100000000D8
:100CB00000000000000000000000000072008E0034
:100CC0008600820082008200820082000000000014
:100CD0000000000000000000000000003800440098
:100CE0008200820082008200440038000000000080
:100CF0000000000000000000000000007A00460034
:100D0000820082008200820046003A000200020057
:100D1000020000000000000000000000B800C40055
:100D20008200820082008200C400BC00800080003B
:100D3000800000000000000000000000E4009400BB
:100D40008C00040004000400040004000000000003
:100D50000000000000000000000000007C00020015
:100D600002000C003000400042003E000000000085
:100D7000000000000000000008000800FE0008005D
:100D800008000800080008000800F000000000004B
:100D900000000000000000000000000042004200CF
:100DA000420042004200420062005C00000000007D
:100DB00000000000000000000000000001018200AF
:100DC00082004200440024002800180000000000B7
:100DD00000000000000000000000000001021102FD
:100DE000320132014A014A01CC00840000000000B7
:100DF000000000000000000000000000020184006C
:100E0000480030003000480084000201000000006B
:100E100000000000000000000000000001020201CC
:100E2000020184004C00480030003000100008002F
:100E3000070000000000000000000000FE0180002C
:100E400040002000100008000400FE010000000027
:100E500000000000E0001000100010001000100062
:100E600010000C0010001000100010001000E00036
:100E70000000000010001000100010001000100012
:100E800010001000100010001000100010001000E2
:100E9000000000001C002000200020002000200096
:100EA0002000C000200020002000200020001C00A6
:100EB0000000000000000000000000000000000032
:100EC0000E023102C101000000000000000000001D
:100ED0000000FF03EF03E103EF03EF03EF03EF0372
:100EE000EF03EF03EF03EF03EF030103FF03FF0340
:100EF000FF03FF03C103BD03BF03BF03BF03DF0342
:100F0000DF03EF03F703FB03FD038103FF03FF038D
:100F1000FF03FF03C303BF03BF03BF03BF03C70335
:100F2000BF03BF03BF03BF03BF03C303FF03FF032D
:100F3000FF03FF03FF03FF03FF03FF037B033303F1
:100F40008703CF03870333037B03FF03FF03FF0301
:100F5000FF03000000000000FF03FF030300030085
:100F60000300030003000300FF03FF030000000071
:100F70000000000000000000FF03FF030300FB016E
:100F8000FB01FB01FB010300FF03FF030000000066
:100F90000000000000000000FF00FF008000800350
:100FA0000003000380038000FF00FF00000000003A
:100FB0000000000000000000FF00FF008000BF03F1
:100FC0003F033F03BF038000FF00FF00000000005D
:100FD0000000FF010203040506076F70717273744D
:100FE0007576FFFFFFFFFFFFFFFFFFFFFFFFFFFF24
:100FF000FFFF101112131415161718191A1B1C1DB8
:101000001E1F202122232425262728292A2B2C2D88
:101010002E2F303132333435363738393A3B3C3D78
:101020003E3F404142434445464748494A4B4C4D68
:101030004E4F505152535455565758595A5B5C5D58
:101040005E5F606162636465666768696A6B6C6D48
:101050006EFFFFFFFFFFFFFFFFFFFFFFFFFFFFFF31
:10106000FFFFFFFFFFFFFFFFFFFFFFFFFFFFFFFF90
:10107000FFFFFFFFFFFFFFFFFFFFFFFFFFFFFFFF80
:10108000FFFF0FFFFFFFFF05FFFFFFFFFFFFFFFF5A
:10109000FFFFFFFFFFFF08FFFFFFFFFFFFFFFFFF57
:1010A000FFFFFFFFFFFFFFFF09FFFFFFFFFF0AFF3B
:1010B000FF0BFFFFFFFF0CFFFFFFFFFFFFFFFFFF27
:1010C000FFFFFFFFFFFFFFFF0DFFFFFFFFFF0EFF13
:1010D000FFFF000010000000100E000010010000D3
:1010E0009000000090000000900000189000001890
:1010F0009000001808010018040E001802000018E3
:101100000100009800000058000000380000FE1F99
:10111000000000380000005800001E98040022184B
:10112000070022180700229807001E18880F2218AF
:10113000900022189000220090001E0090070000EE
:10114000900000009000000090000000900F000050
:101150000000000010000000900F00009000000050
:101160009000000090000000900700189000001808
:101170009000001889000018870F00180700001859
:101180000F00009800000058000000380000FE1F0B
:10119000000000380000005800001E9800002218CF
:1011A000010022180200221804001E18080E22183E
:1011B000100122189000220090001E0090000000F4
:1011C000900000009000000010010000100E0000D0
:1011D00000000000100000009003000090040000D8
:1011E000900800009008000090080030900800303F
:1011F000900800F69F0400368003003600001C06AD
:10120000000022060000023602000236030002F649
:101210001F003A36130022361200220610001C0668
:1012200010000036100000361000FEF71F070030D7
:1012300090080030900000009000000010070000AF
:1012400010080000100800009008000010070000BF
:1012500000000000100000001007000090080000CF
:1012600090000000900000001007003010080030CF
:101270001008FEF79F0800361007003610001C0605
:10128000100022061000023611000236130002F68A
:101290001F003A36030022360100220600001C0619
:1012A0000000003600000036000000F69F0300300A
:1012B00090040030900800009008000090080000A2
:1012C00090080000900800009004000090030000C7
:1012D00000000000100000009003000090040000D7
:1012E000900800009008000090080030900800303E
:1012F000900800F69F0400368003003600001C367C
:10130000000022360000023602000236030002F618
:101310001F003A36130022361200223610001C3607
:1013200010000036100000361000FEF71F070030D6
:1013300090080030900000009000000010070000AE
:1013400010080000100800009008000010070000BE
:1013500000000000100000001007000090080000CE
:1013600090000000900000001007003010080030CE
:101370001008FEF79F0800361007003610001C36D4
:10138000100022361000023611000236130002F659
:101390001F003A36030022360100223600001C36B8
:1013A0000000003600000036000000F69F03003009
:1013B00090040030900800009008000090080000A1
:1013C00090080000900800009004000090030000C6
:1013D00000000000100000009003000090040000D6
:1013E000900800009008000090080030900800303D
:1013F00090080030900400F09F031C300000223061
:1014000000000230000002300000023000003A30DC
:10141000000022300000223000001C3000000031AB
:10142000000000330000FEFF1F00003310070031F2
:1014300090080030900000009000000010070000AD
:1014400010080000100800009008000010070000BD
:1014500000000000100000001007000090080000CD
:1014600090000000900000001007003010080032CB
:10147000100800339008FEFF1F0700330000003201
:1014800000001C300000223000000230000002305A
:101490000000023000003A3000002230000022300C
:1014A00000001C30000000F01F00003090030030EE
:1014B00090040030900800009008000090080000A0
:1014C00090080000900800009004000090030000C5
:1014D0000000000010000000100E000010010000CD
:1014E000900000009000000090000030900000305C
:1014F0009000003610010036080E00360400003659
:1015000002000036010000B6000000760000FE3741
:1015100000000076000000B600001C3609002236EC
:101520000E0002360E0002360F000236900F3A30DF
:10153000900022309000220090001C0090070000D4
:10154000900000009000000090000000900F00004C
:101550000000000010000000900F0000900000004C
:1015600090000000900000009007003090000030D4
:1015700090000036920000368E0F00360E000036C6
:101580001E000036010000B6000000760000FE37A5
:1015900000000076000000B600001C360100223674
:1015A000020002360400023608000236100E3A30FD
:1015B000100122309000220090001C0090000000DA
:1015C000900000009000000010010000100E0000CC
:1015D0000000000071000000890000008900000088
:1015E00089000000F9000000890000008900000067
:1015F0008900000001000000010000FFFF0100FE63
:10160000FF0000FC7F0000F83F0000F01F0000E03A
:101610000F001CC00700228003000200010002FF2F
:10162000FF013AFFFF0122800100224001001C203F
:10163000E1000010110000080900FE070900000089
:10164000090000000900000011000000E100000096
:1016500000000000010000004900000049000000F7
:101660004900000049000000490000004900000056
:10167000010000000100C0FFFF07C0FFFF070008D6
:10168000FE03001CFE03001CFC01003EFC01003EAA
:10169000F800007FF800007F70008CFF700092FF60
:1016A0002000C2FFFF07DAFFFF07120801000C0449
:1016B00001000002110000011100FE0011000000F5
:1016C00011000000110000001100000001000000E6
:1016D0000000000071000000890000008900000087
:1016E0008900FE07F90000088900001089001C200D
:1016F0008900224001000280010002FFFF013AFE42
:10170000FF0022FC7F0022F83F001CF01F0000E0D9
:101710000F0000C00700008003000000010000FF70
:10172000FF0100FFFF0100000100000001000000B8
:10173000E1000000110000000900000009000000A5
:10174000090000000900000011000000E100000095
:101750000000000010000000900400009004000051
:1017600090040000900400009004003090040030C9
:1017700090043E30100040F21F00803300008033A0
:101780000000C0330000003400003E38000002308A
:10179000000002300000023000001E300000023065
:1017A00000000230000002F01F003E301000003048
:1017B00010010030100100001001000010010000B5
:1017C00010010000100100001001000010000000D6
:1017D000000000000000000000000000000000F019
:1017E000010000FC070000FE0F00000F1E000007B4
:1017F0001C0080033800800338008003380000009C
:10180000380000001C0000001E0000000F000080D7
:10181000070000C0030000E0010000F0000000F03D
:10182000000000F0000000F00000000000000000D8
:1018300000000060000000F0000000F00000006008
:101840000000000000000000000000000000000098
:1018500000000000480400004802000048010000A9
:10186000C8000000480100004802000048040004CD
:101870000800000408000004080000FCFF1F00002E
:10188000081000001C1000003E1000007F000080C7
:10189000FF0000C0FF0100E0FF0300F0FF0700F8B9
:1018A000FF0F00FCFF1F0000080000000800000000
:1018B00008000000880300004804000048040000FD
:1018C000C807000048040000480400004804000065
:1018D0000000000000000080000000800000008088
:1018E00000000080000000800000008000000080F8
:1018F000000000800000008000000080000000FF69
:101900007F0000000000C0FFFF01C0FFFF01C0FF1B
:10191000FF01C0FFFF01C0FFFF010000000000FF4A
:101920007F00008000000080000000800000008038
:1019300000000080000000800000008000000080A7
:101940000000008000000080000000000000000097
:10195000000000000011000000110000C01700008E
:10196000001100E03F1100202010003FE01F002187
:10197000201000E13F101C0100102401001044F170
:101980003F10441120104411E01F241120001C11AD
:10199000200000112000FE1F200000102000001079
:1019A0002000001020000010E01F0010201000F0A8
:1019B0003F100000001000000010000000100000A8
:1019C0000010000000100000C01700000010000010
:1019D0000000050A0605060A050A0609060A050AA0
:1019E0000609060A050A0609060A050A0605060A80
:1019F000050A06050A06090A06090A06000000008B
:101A00000000000000110A0666706E056D006B4D47
:101A100000010201020402082001041041436F6D1D
:101A2000700056636300436865636B73756D0023D4
:101A3000320023310053686F7274204369726375FA
:101A4000697421004372656174650052656D6F763B
:101A50006500426174746572793F004300495F52CA
:101A6000002D022D002D012D004963656F00566287
:101A700065006846457200495F0068464500504E63
:101A800050004E504E00424A5400565F4753286F54
:101A9000666629004964737300464554004D4F53F0
:101AA00000494742540056540050555400525F427A
:101AB0004200554A5400565F6C00495F6C002D038C
:101AC0002D0053656C6563740053686F7720566111
:101AD0006C756573004C6F616400536176650041FD
:101AE000646A7573746D656E740053656C6620541A
:101AF000657374004F666600457869740052682B00
:101B00000052682D002B52682D002B526C2D005670
:101B10007265660043300052692B0052692D003116
:101B200032203133203233005230005371756172EC
:101B3000652057617665005A656E6572004553529F
:101B40000001020304050100080040000001000438
:101B5000467265712E20436F756E7465720044691C
:101B6000736368617267696E6700526800526C0047
:101B70004368617267696E6700436170204C6561FC
:101B80006B6167650052434C204D6F6E69746F72D4
:101B90000044696F64652F4C45440000487A006436
:101BA00000FA00F401E803C40988131027A8615063
:101BB000574D003C4D656E7520546573743E005062
:101BC000726F62696E672E2E2E0076312E35326D61
:101BD0005F41592D41545F32304D00436F6D706F3E
:101BE0006E656E7420546573746572004572726F11
:101BF00072210054696D656F75740042796521002A
:101C0000565F475400547269616300534352006544
:101C10006E682E006465702E002D636800566600A5
:101C20005264730043677300567468002D06072DD5
:101C300000666F756E6421004E6F20636F6D706F6C
:101C40006E656E74000011241FBECFEFD8E0DEBFBA
:101C5000CDBF11E0A0E0B1E0E0E2FEE702C00590F8
:101C60000D92AC31B107D9F722E0ACE1B1E001C08F
:101C70001D92A631B207E1F70E94572E0C94C93E7F
:101C8000A0E0B0E0E6E4FEE00C94223E2B013C0133
:101C9000342E480159011E2DA3019201C1E09AE0A2
:101CA000C92ED12CE12CF12C2A30310541055105EA
:101CB00020F5A5019401D1E08AE0C82ED12CE12CB9
:101CC000F12C2A30310541055105F8F44114510435
:101CD00061047104C1F181149104A104B10409F4F7
:101CE0004BC0432D4C0FE12EED0EE4160CF444C016
:101CF000FE014E15D9F08FEF2EC0CA01B901A70120
:101D000096010E94BE3DCF5FCFCFCA01B901A701A6
:101D100096010E94BE3DDF5FD4CFAAE0B0E0A501EE
:101D200094010E94173E4B015C01FF5FFC17ACF36E
:101D3000CD17B4F0CD1BCD0FEC17A4F0841495048F
:101D4000A604B704C8F081E0481459046A047B046F
:101D500008F080E08195CDB7DEB7E1E10C943E3E1E
:101D6000C0E0E9CFAAE0B0E0A30192010E94173ED3
:101D70002B013C01EF5FE0CF81E0EDCF3091B3016B
:101D8000A0E0B0E0F3E0880F991FAA1FBB1FFA95EF
:101D9000D1F73630C1F4492F5A2F6B2F77274F5F79
:101DA0005F4F6F4F7F4FE4E0440F551F661F771F53
:101DB000EA95D1F7481759076A077B07D0F5841BC6
:101DC000950BA60BB70B1092B1001092B20022E057
:101DD0002093B0002093700023B7217F232B23BFD3
:101DE00031E00FB607FC02C0789430E0E7E0A89538
:101DF000AC01BD01811521E09207A105B10520F0DC
:101E00004FEF50E060E070E0841B950BA60BB70B22
:101E100041504093B300E093B1002091B1002111F3
:101E20000AC00097A105B10511F7311101C0F8945E
:101E3000089530E0C8CF23B7216023BF889523B72A
:101E40002E7F23BFEACFE4E3F1E088EC90E09183BA
:101E500080838CED90E09383828384E190E095838E
:101E600084838BE286831782108611860895AFE300
:101E7000B1E08C9311966C93119712964C93129734
:101E800090E0FC01E75EF54EE4911696EC93169710
:101E900070E0FB01E75EF54EE4911796EC9317971F
:101EA00050E0FA01E75EF54EE4911896EC9318972E
:101EB000FC01EA5EF54EE4911996EC931997FB014B
:101EC000EA5EF54EE4911A96EC931A97FA01EA5EEF
:101ED000F54EE4911B96EC931B97FC01ED5EF54EDD
:101EE000E4911C96EC931C97FB01ED5EF54EE4919A
:101EF0001D96EC931D97FA01ED5EF54EE4911E964A
:101F0000EC931E97FC01E05FF54EE4911F96EC9375
:101F10001F97FB01E05FF54EE4915096EC935097CC
:101F2000FA01E05FF54EE4915196EC93089543E099
:101F3000461B481B9CCF0895EFE3F1E04581648187
:101F4000838195CF08951F93CF93DF939C016150B8
:101F500070E0CB01880F991FFC01EB5EFE4F4081C2
:101F60005181875F9E4FDC01ED91FC91C901841B7B
:101F7000950B2417350710F480E090E0DB01AE5E8E
:101F8000BE4F1C91212F30E0615F7E4FDB014C91F1
:101F9000C42FD0E0B9010E94973D181BCB019927AF
:101FA0004817190608F0EB01CE019927880F991FF1
:101FB0008E0F9F1FFC0145915491FC013296C591F3
:101FC000D4914C1B5D0B149FB001159F700D112413
:101FD000C90196958795860F971FB9010E94973D75
:101FE000CE01860F971FDF91CF911F910895EEEBE1
:101FF000F1E0868197819187808780EE9FEF9783BC
:1020000086830895EEEBF1E0808591859783868342
:10201000089516BC81E085BDA99BFECF15BC82E06A
:1020200085BB08959091DB01E6E8F1E0911104C0D1
:10203000E0E0F0E0CF0108952081281303C0218162
:102040002617C1F391503696F1CF98E087FF07C06D
:102050005B9A5A9A5A98880F9A95C1F708955B9897
:10206000F8CF59985D98F1DF5D9A0895599A5D9877
:10207000ECDF5D9A0895CF93C82F892F599A5D9808
:10208000E4DF8C2FE2DF5D9ACF9108958AE2E9DFE9
:102090008091240190912501EEDF809122019091A1
:1020A0002301E9DF8BE2DDDF8091200190912101A6
:1020B000E2DF80911E0190911F01DDCF0895809392
:1020C000BF016093C0016150603190F441E050E085
:1020D000062E02C0440F551F0A94E2F720911C01FE
:1020E00030911D01242B352B30931D0120931C01B1
:1020F00081502AE0829FC001112490932501809392
:10210000240180E1689FB001112470932101609344
:10211000200108950F931F93CF93682FA89581E016
:10212000611104C06091C0018091BF016131E0F490
:102130009FEF960F21E030E002C0220F331F9A95E7
:10214000E2F740911C0150911D01FA01E223F323B3
:10215000EF2B41F1813041F4209530952423352334
:1021600030931D0120931C01AADF8FE990E090932A
:102170002301809322012091200130912101C90186
:102180000F96C0E18038910520F0C0E8C21B8FE7B0
:1021900090E090931F0180931E0178DF8CE261DF55
:1021A000C11104C0CF911F910F9108950091240196
:1021B00010912501003A110510F0C150F1CF8FE0C8
:1021C00090E059DF0F5F1F4FF5CF82E0A3DF62E0A1
:1021D00081E075CF0895CF93C1E08C2F9BDFCF5F57
:1021E000CA30D9F761E081E06ADFCF910895A0E0BD
:1021F000B0E0EDEFF0E10C94283EE82F8091BF01B4
:10220000813108F049C0F0E0EE52F04FC491CF3F69
:1022100009F442C090E2C99FE0011124CE50DF4F83
:102220006091C0014CDF80912401909125010996B5
:1022300090932301809322018091200190912101AC
:102240000F9690931F0180931E0120DFC090C40160
:10225000D090C5018CE205DF7E01E0E2EE0EF11CBC
:102260008AE0982E5E01F2E0AF0EB11C192DF9E064
:102270009F1608F018E0911AFE010491111111C087
:102280002196CA15DB0591F7EC16FD0649F78091FA
:10229000BF018F5F8093BF01CDB7DEB7EBE00C9439
:1022A000443EC60100FD02C08FE090E0E4DE0695EA
:1022B0001150E4CFCF93DF93EC01FE0184918111A3
:1022C00003C0DF91CF91089592DF2196F6CF83DF8F
:1022D0008FEF97E09093C5018093C4018BEF9BE152
:1022E000E9DFF8940FB6F894A895809160008861B2
:1022F00080936000109260000FBE5E9883B7817F6C
:10230000846083BF83B7816083BF889583B78E7FE6
:1023100083BF08958F5C6BCF08959091E10189137D
:1023200004C08091E40163CF08959091E201891384
:1023300003C08091E501F7CF8091E601F4CF80E002
:10234000E9DF81E0E7DF82E0E5DF8DE350DF80E079
:10235000E4DF81E0E2DF82E0E0CF0895CF93C82F91
:102360008091DF01E82FEE0FE80FE60FFF27FF1F38
:10237000EE52F64EE491E11511F18091CB018150BE
:102380006091CC01E4FF04C09091CA019695690F59
:10239000E1FF04C09091C9019F5F890FE2FF04C073
:1023A0009091CA019150690F8ADE8091E101C813B2
:1023B00008C08091E401883771F48C2FAEDFCF9193
:1023C00008958091E201C81303C08091E501F3CF25
:1023D0008091E601F0CF8C2F9DDFF1CF80E207CF17
:1023E0000895A3E0B0E0E7EFF1E10C942D3E89837E
:1023F0006A834B83CE0101967C0110E0F7010191C5
:102400007F01011539F0812F85DF8AE3F0DE802F0F
:10241000EEDEE4DF1F5F133089F72396E6E00C94CD
:10242000493EDCDF8091D70180FF06C08EE4DFDE0D
:1024300089E19CE13FCF089580E5F9CFCFDF80911E
:10244000D70182FF04C08FE09CE134CF089584E17E
:102450009CE1FBCF2FDFC2CF08958DE2C8CE089557
:102460000F931F93CF93DF93CEEBD1E00E811F81AB
:1024700020EE3FEF3F832E831DDF1F830E83DF910E
:10248000CF911F910F910895CF93DF93C82FCF70F5
:10249000C064C0937C00DC2FD07C8091B6018D1786
:1024A00021F00E94492ED093B60180917A00806479
:1024B00080937A0080917A0080748111FBCF20E0B4
:1024C00030E0A901E091B4018E17E8F0A091B701C6
:1024D000B091B801D03C21F0A091B901B091BA01FE
:1024E0000E94173E2AE096958795779567952A95DD
:1024F000D1F72E2F30E040E050E00E94BE3DC901F0
:10250000DF91CF91089590917A00906490937A0032
:1025100090917A0096FDFCCF6091780070917900DF
:10252000260F371F411D511D843061F4211594E0A1
:10253000390740F4D03C31F09091B501913011F45D
:10254000C06CA7CF8F5FBECFA6E0B0E0EAEAF2E1B1
:102550000C94283E17B818B815B88FE384B980E0FA
:1025600093DF9A83898381E08FDF9C838B8382E072
:102570008BDF9E838D83912C22E0D22E38E2E32ED6
:10258000FF24F394AA24A394B12CD39443E0D4124F
:1025900001C0D12C0D2D10E0892D90E00D2C02C032
:1025A000959587950A94E2F780FDEFCFF801E05FFB
:1025B000F54EC4908C2D68DF9C01F801EE0FFF1FD3
:1025C00081E090E08C0F9D1FE80FF91F80819181C1
:1025D0002817390778F431832083EE2DEF19FF0B8C
:1025E00074972CF4FBEEEF1610F444E1E40EFF2494
:1025F000F39409C02A30310528F459E2E51610F4A5
:1026000080E5E82EF3942330310508F036C0C5018B
:10261000002E01C0880F0A94EAF7982A97E09916CD
:1026200031F1EF1408F034C081E08093D60180933B
:10263000D701D092DC01F801ED5EF54EE49187B14F
:10264000E095E823E7B9F801EA5EF54E9491075E5C
:10265000154EF801049184B1E92FE02BE095E823B1
:10266000E4B98C2D11DF9093DE018093DD0114B865
:1026700017B82696EBE00C94443E2032334070F6B7
:10268000F801ED5EF54E8491E7B1E82BE7B9C6CFCE
:10269000A89582E390E072DBF11077CFE8CFCF937B
:1026A000C82F0E94402E8C2FEFDECF910895CF933C
:1026B000DF933DDC17B88091450185B990914601C3
:1026C000892B84B980914E01EADFEC0180914F01A2
:1026D000DBDEAC012091B9013091BA013695279526
:1026E000C9014E978C179D0760F4225E3F4FC217B9
:1026F000D30738F48417950720F481E04217530775
:1027000008F080E014B8DF91CF910895CF9361E095
:1027100080E0CDDFC82F62E080E0C9DFC80F62E053
:1027200081E0C5DF8C0FCF910895CF92DF92EF92B9
:10273000FF92CF93C82F15B88091460184B980913C
:102740004B0187B988B980914F01A9DFDC0104975B
:10275000E8F1C0903401D0903501E12CF12CA9377B
:1027600085E0B80760F1C13051F514B880914B0194
:1027700090914C01892B87B980914F0185DEDC0156
:10278000C9EF17B818B814B815B820EA36E841E010
:1027900050E00E94173EA70196010E94BE3D209383
:1027A000F6013093F7014093F8015093F901C0937B
:1027B000FA01CF91FF90EF90DF90CF90089586E8D7
:1027C000C80E8AE1D81EE11CF11CDACF80914901C4
:1027D00084B980914F0163DFDC018DE8C82E8DE262
:1027E000D82E87E0E82EF12CC8EFCBCFCF93C82F9F
:1027F0000E943E2E8C2F48DECF910895CF93C82F94
:10280000C09595B160FF11C0982B95B994B1892BF3
:1028100084B963FF0CC00E94442E84B18C2384B918
:1028200085B18C2385B9CF9108959C23EECF0E946A
:102830003F2EF3CFA0E0B0E0E0E2F4E10C94233EC1
:10284000A89582DE8091D601813009F48AC018B83B
:1028500080914C0187B980914E0116DE2C01809148
:10286000480184B985B961E180914701C7DF809152
:102870004E0115DF3C018091450184B985B961E1C4
:1028800080914701BBDF80914E0109DF6C0180918F
:102890004F01FADD7C0158DE8091D601813009F4C8
:1028A00060C018B880914C0187B980914E01ECDD71
:1028B0008C0117B880914B0188B987B915B8809100
:1028C000490184B960E18091470198DF80914E0110
:1028D000E6DEEC0180914F01D7DDC817D90708F477
:1028E00045C0C81BD90B46018E189F088091460130
:1028F00084B960E18091470181DF80914E01CFDE94
:102900005C0180914F01C0DD9C01C501821B930BCE
:1029100017B88815990568F5280D391D7901EA1849
:10292000FB088201E30129EEE21623E0F206C8F477
:10293000C630D105B0F00C171D0708F5033011059E
:1029400038F0CE01801B910B8C010436110548F044
:10295000C832D105B8F0C40187599109893891412D
:10296000D0F1CDB7DEB7E0E10C943F3EC0E0D0E05F
:10297000BACFEC18FD08E80EF91E4C01D4CF0C1BA1
:102980001D0BE3CF15B88091460184B980914B01AE
:1029900088B987B980914F0182DE8C018091450111
:1029A00084B980914C0188B987B980914E0177DE56
:1029B0009C01C80164E170E00E94973DC801861B3C
:1029C000970B8217930738F6060F171F201731074A
:1029D00008F0C1CFC6CF8091D601811511F08A30A1
:1029E00019F484E18093D6018091DB0196E0899F00
:1029F000F0011124EA57FE4F90913F01908390918E
:102A00004001918393828282D583C4838F5F8093B8
:102A1000DB01A7CFA0E0B0E0E0E1F5E10C942B3EB4
:102A2000EC01062F15B818B8162F117080914B01C4
:102A3000111509F4B3C09091460194B987B986E0A5
:102A400080937A0080E480937B0080914F01806CBA
:102A500080937C0084E480BF0E94442EA89510924D
:102A6000800010928100109285001092840087E20D
:102A700086BB047090914B01011509F494C098B97C
:102A80000000000000000000000000000000000046
:102A90008091810081608093810020E030E096B3D6
:102AA000892F8072811186C090FFF9CF41E046BB2B
:102AB0002F5F3F4F2032310591F71092810040E2A5
:102AC00046BB40918600509187006091460170910D
:102AD0004501672B64B917B8609184007091850037
:102AE0004617570730F490FF04C091E096BB2F5F64
:102AF0003F4F96E990937A0090917B009F7B909353
:102B00007B00811509F442C0CA01A0E0B0E040E0BA
:102B100050E0A90133272227822B932BA42BB52B1E
:102B200024E0011521F04F96A11DB11D23E01111E4
:102B30002F5FC22ED12CE12CF12C281719061A0672
:102B40001B06D0F59C01AD012C193D094E095F090A
:102B5000A2EEB4E00E94173E6B5F7F4F8F4F9F4FF6
:102B60006B017C012AE030E040E050E00E94BE3D75
:102B7000288339834A835B83111511F184EDC816CC
:102B800080E3D806E104F10410F183E090EC909327
:102B9000B601CDB7DEB7E8E00C94473E14B890918B
:102BA0004C01892B4BCF8091810081608093810003
:102BB00098B973CF83E081CF20E030E0A901C8CF7E
:102BC00022EFC21623E0D206E104F104DDCF82E059
:102BD000DDCF2F923F924F925F927F928F929F9282
:102BE000AF92BF92CF92DF92EF92FF920F931F931B
:102BF000CF93DF9300D000D0CDB7DEB76C01109239
:102C000051011092520110925301109254011092EE
:102C100055010097B9F480E00F900F900F900F903E
:102C2000DF91CF911F910F91FF90EF90DF90CF90A8
:102C3000BF90AF909F908F907F905F904F903F900C
:102C40002F900895FC016381748185819681E12C28
:102C500000ED17E020E030E0428112D887FFDBCFA3
:102C6000F6016181808163D96FDC8091D60181306A
:102C700051F56ADC8091D601813069F261E0CE01C4
:102C80000196C8DE01E08230D1F4F60163817481DF
:102C900085819681E12C08E210E020E030E042815D
:102CA0000E94400E87FFB7CF4FDC8091D601813064
:102CB00009F4B1CF62E0CE010196ACDE02E08330D0
:102CC00009F0A9CF12C065E0CE010196A3DE8330E2
:102CD00009F04EC089819A81AB81BC8105E08938B9
:102CE0009341A105B10508F4C4CFF6011281C38058
:102CF000D480E580F6804AE0842E912CA12CB12C62
:102D00001F3FC9F580913801909139010596E091F6
:102D10003401F091350120913601309137012E0FA9
:102D20003F1F6AE070E00E94973DD901A60FB71FD0
:102D3000AC0DBD1DC980DA80EB80FC8000FF30C087
:102D4000AA57B54EEA57F54E20E7C21627E1D2063C
:102D5000E104F10408F490C024E130E08CE1C816ED
:102D600085E2D806E104F10440F526EF3FEF25C0E7
:102D7000811151CF7ECF54F4C701B601A501940152
:102D80000E94BE3D69017A011F5FBACFAAE0B0E0A0
:102D9000A70196010E94173E6B017C011150B0CF34
:102DA0002CEDC21625E0D20600F328E8C21623E176
:102DB000D20608F064C02BEF3FEF40913C018091B8
:102DC000B7019091B801840F911D47FD9A95032E8C
:102DD000000C440B550B280F391F411D511D4D018F
:102DE000A12CB12C0E94173E9F0140E050E00E94B0
:102DF000BE3DCA01B90125E030E040E050E00E944C
:102E0000BE3D63E0C9019FD8782E092F17EF3AE045
:102E1000232E312C412C512C81EAC81686E8D80685
:102E200081E0E806F10470F5A72DB02FA701960107
:102E30000E94173E2AE0C22ED12CE12CF12C613ADF
:102E4000E6E87E07E1E08E07910550F5A5019401C3
:102E50000E946F3D1093510120E137E240E050E0C5
:102E60000E94BE3D20935201309353014093540180
:102E70005093550181E0D0CE26E230E09ECF2EEC7B
:102E80003FEF9BCFC701B6016B5F7F4F8F4F9F4FC7
:102E9000A20191010E94BE3D69017A011F5FBCCF72
:102EA0006B5F7F4F8F4F9F4FA70196010E94BE3DE2
:102EB000CA01B9011F5FC3CFA0E0B0E0E2E6F7E1CD
:102EC0000C94273E6B017C01C42F122F9AE0892EAF
:102ED000912CA12CB12C80E1C81687E2D806E10420
:102EE000F10408F04AC0C13F0CF455C08FE08C0FCC
:102EF00023E0622F0E948A3DD92F911519F08F5F30
:102F0000291BD22F883008F047C0E82FF0E0E85F97
:102F1000F54E04914AE066E271E0C6010E94793EF6
:102F2000A6E2B1E00D900020E9F7A752B140BA2E19
:102F3000CA2FCD1B1C1694F180E359D98EE257D9C4
:102F4000C11561F180E353D9C15086E2C82E81E0FA
:102F5000D82EE12CF12C0C2E000CDD0BEB1410F113
:102F6000011511F0802F43D9111511F0812F3FD990
:102F7000CDB7DEB7ECE00C94433EC701B6016B5F02
:102F80007F4F8F4F9F4FA50194010E94BE3D690165
:102F90007A01CF5FA0CFD0E000E0BCCFD111D4CF79
:102FA000CFEFD2CFF60181916F0121D9CE15DF0588
:102FB00011F48EE21CD9FFEFEF1AFF0ACFCFCF93A7
:102FC000C62F15D98CE29CE175D98C2F10D906DA61
:102FD000E0E0F2E0638174818581968124E04281A2
:102FE0006BDFCF9108951F93CF93DF93C091BB0107
:102FF000D091BC01C03787E1D80760F020EE37E000
:103000001FE0C8358BE1D80718F420EE3FEF1EE033
:103010008DE004C020E038EF1EE08CE03093C50165
:103020002093C401E4D8812FE2D8D8D98FEF9FEF45
:103030009093C5018093C401CE016AE070E00E94C4
:10304000973D80E090E026E54EEF36DFDF91CF91AF
:103050001F91089585E018DA9C01AEEBBFE00E9455
:10306000023E28EE33E040E050E00E94BE3D2C508E
:103070003E4F3093BC012093BB0184E68093BD0199
:103080002037374168F48FEF9FEF9093C50180930D
:10309000C401A1D8A8DF88EB9BE00E94BE0E17C92F
:1030A0000895A4E0B0E0E7E5F8E10C94213E7C014E
:1030B000062F81E08093D1011092D2018093CE013E
:1030C0008091B201C12CD12C85FF03C058E7C52ED9
:1030D000D12C02FF05C08091B10180FD53C00C7F4F
:1030E0008090C4019090C50180EE9FEF9093C50140
:1030F0008093C401302F3072732E8091D401E82F59
:10310000F091D501311142C0402F4370242E41155A
:1031100031F068E080E10E945F108EE368D892E0B1
:103120009983612C82E3582E1C8231E03B8310E0AE
:10313000402F42704A834424439492E7A92EB12C35
:10314000E114F10439F053E0E516F104B8F182E03E
:10315000E81AF1084F9937C08EE190E00E94BE0E48
:103160009B811C82911509F42BC14F9929C13C8187
:103170003F5F3C833B3109F40FC18AE090E00E943D
:10318000BE0EF3CFE12CF12CABCF319674907110C1
:10319000FCCFE81BE1508091C101E81708F0B4CFE3
:1031A000782E7E1A0C7F6091C201872D0E945F10DD
:1031B0008091D4019091D5017DD8A6CF1B8242E0A9
:1031C000E42EF12CC7CF3AB08AB1857F8AB90E942C
:1031D000452E89B183FB222720F9220F81FD216032
:1031E0003AB88091D101813031F42093D00110920E
:1031F000D1011092D3018091D3019FEF980F993F95
:1032000018F48F5F8093D3018091D0012093D00177
:10321000281709F478C0922F982790FF969591303F
:1032200009F06FC0880FA50102C0559547958A9592
:10323000E2F7CA018370281362C024E08091D201B2
:103240008F5F8093D2018091D101821721F040924B
:10325000D2014092D3012093D1018091D2018430D8
:1032600008F451C01092D201611411F0121325C05C
:1032700063948091D301662D0E947E3D9CE0950D64
:10328000592E580E54E1589FC001112434E09695F0
:1032900087953A95E1F7382F893208F06CC086950A
:1032A00086958695383108F468C03981361168C032
:1032B00097E0981B9093CE01122F9092C5018092B7
:1032C000C401211439F068E080E10E945F1080E2BF
:1032D0000E94F710711441F06091C201872D0E9485
:1032E0005F1080E00E948A101093CD01173611F410
:1032F0000E946711812F2496E2E10C943D3E25E067
:103300009DCF4092D101611421F08091D3018515A8
:10331000A0F682E090E00E94BE0E4C814F5F4C838D
:10332000842F68E20E947E3D911107C08091BD010B
:10333000823040F181508093BD015C81583C71F531
:103340008A81811561F09B8168E080E19130E1F430
:103350000E945F1080E20E94F71032E03B83C114AC
:10336000D10409F453C051E0C516D10409F181E03C
:10337000C81AD1084BC085E098CF93E0998395CFC8
:10338000122FC1CF67DED9CF0E945F108EE30E945B
:10339000F71041E04B83E3CF1B8212E08091B20132
:1033A00080FF0AC08091B2018E7F8093B20185CFE9
:1033B0001C821B8217E6F2CF5B815111C1CE7DCFFB
:1033C000802F88708B8311E0811541F382E390E0B8
:1033D0000E94BE0E44E14B8311E04F990DC08EE177
:1033E00090E00E94BE0E4F9907C088EC90E00E94CA
:1033F000BE0E51E05B8313E08B8181508B838AE0AA
:1034000090E00E94BE0E9B819111E7CF1C82C6CF37
:10341000CF93C091BE016091C0018091C20186131B
:103420001AC0C0FF04C065E188EB9BE03ADEC1FF33
:103430000EC0C091C201C23028F462E081E00E9457
:103440005F1007C08C2F0E948A10C150F4CF0E94D9
:10345000EB10CF9108956F5FF1CFCF93DF93D82F0B
:10346000C92FD6DF8D2F9C2F0E945A11DF91CF914B
:10347000089588E39CE10E945A1181E39CE1EDDF0D
:10348000809115028F5F8093150208950F931F930B
:10349000CF93DF93C82FD0E00BE41AE1811519F028
:1034A00004E41AE1D3E032D9D81779F00E94EB1086
:1034B000C8010E945A1185E39AE1CFDF27D9D813BA
:1034C0000AC088EC90E00E94BE0E81E0DF91CF91AF
:1034D0001F910F91089560E184E690E0E2DDC13034
:1034E00069F7811559F380E0F1CF6230C9F46BE0E0
:1034F00070E090E0E4E3F1E02191920F21E0EE33FF
:10350000F207D1F7911101C091E090933E014BE099
:1035100050E0823041F484E391E00C94B23E08958F
:1035200060E070E0E6CF84E391E00E94A23E80E09C
:10353000E4E3F1E09191890F91E0EE33F907D1F7DF
:1035400090913E019115A1F0811101C081E0981781
:1035500079F00E94EB1086E29AE10E945A118CEEFB
:103560009BE17BDF80ED97E00E94BE0E0C94230F61
:103570000895CF93DF93D82FC92F4ADF8D2F9C2F2B
:103580000E945A110E94EE11DF91CF910895EF929F
:103590000F931F93CF93DF93D82FC92F6091F6011C
:1035A0007091F7018091F8019091F90127EFE22ED7
:1035B00002E310E020E030E04091FA010E94400E6A
:1035C00087FD0FC08D2F9C2FD4DF6091F601709185
:1035D000F7018091F8019091F90121E44091FA01FD
:1035E0006BDCDF91CF911F910F91EF900895809147
:1035F000D6018232D1F48BE09CE10E94301208DFC8
:103600000E949F118091E8019091E901892B61F05E
:1036100080E09CE1AEDF6091E8017091E90180E01B
:1036200090E026E54DEF48CC089585E09CE1E5CF9C
:10363000A0E0B0E0EEE1FBE10C94253E2091CA0150
:103640003091C20191E0920F391708F482C0909135
:10365000C101903120F0280F231708F47FC0309368
:10366000C001D6DE93E082E09093CB018093CC0141
:103670006090C00160E08091E1010E94AE1161E0C4
:103680008091E2010E94AE1162E08091E3010E940C
:10369000AE11E090C401F090C50180EE9FEF9093D1
:1036A000C5018093C4016091CC018091CB010E943F
:1036B0005F10C091DF0180E8C89FE0011124CE5265
:1036C000DF4E6091C0018091BF010E945F10809128
:1036D0002401909125014D9690932301809322011E
:1036E00080912001909121014F9690931F0180932A
:1036F0001E010E944610C090C401D090C5018CE20A
:103700000E9431105E01E0E8AE0EB11C8EE1782E11
:103710004E01F4E08F0E911C172DF9E07F1608F092
:1037200018E0711AFE01049111111CC02196C815F0
:10373000D90591F7AC16BD0649F76091CC016F5FD2
:1037400081E00E945F10F092C501E092C401609296
:10375000C001CDB7DEB7EEE00C94413E2091C90127
:10376000921B82CFC60100FD02C08FE090E00E9454
:103770003B1011500695D8CFCF93C82F0E94E5106B
:103780008C2F90E0DC01A050BF4FFC01ED5FFE4F9D
:103790008A5F9E4F4C916081FC0180810E94F111F3
:1037A00060E188E893E17DDC0E94E510CF91089507
:1037B000A0E0B0E0EEEDFBE10C94213EC82E662EB9
:1037C0004A0159010FEF080F7090C201DD24DA940D
:1037D000D70C0E94F70F8AE30E94F7100E94021094
:1037E00012E0D0E0C0E055245A9444244A949EEF5D
:1037F000392E370C81E0D81202C01F5FDC2FED2E6E
:10380000F12CEE0CFF1CE80CF91C212C2D1428F1D6
:1038100081E0D81209C06091C2018091C1010E946B
:103820005F108CE30E94F71060E180E090E039DCEB
:10383000813009F470C0843009F479C0853009F012
:1038400068C0C11149C00D1508F460C0DC2DD7193E
:10385000DF5F802F12E0C82FCDCF62E0620D81E0E4
:103860000E945F10E1E0DE1679F08D2F820D8C133F
:1038700027C05092C4014092C5018EE30E94F71008
:103880005092C4014092C501113089F0F1E06F12ED
:103890001AC0F701808191810E945A11A114B104CC
:1038A00019F0C5010E945A1180E00E948A10F2E0CE
:1038B000EF0EF11C2394021508F0A8CF2D2CA6CFF3
:1038C0000E94EE11E1CFF7016591749180E090E0E4
:1038D00020E040E0F1DAE2CF8FEF8C0FD81317C071
:1038E000D115A9F0DEEFDC0FB5CFCF5F832D8D0FA3
:1038F000C81307C0C01728F4DF5F12E07BCF8736FC
:1039000011F011E077CF0E946711FBCF802F11E0FB
:10391000A2CF8230A1F70E94EB1084EF91E00E94C9
:10392000BE0E8C2FCDB7DEB7E2E10C943D3E0C13FA
:10393000DCCF11E00D1508F012E0D0E0C0E05ACF66
:10394000A9E0B0E0E6EAFCE10C94303E182F82E3F7
:103950009AE19A83898381E08F838FE29AE19C8345
:103960008B8382E0888788EF9AE19E838D83198616
:103970000E94EB108AED9AE1123011F085ED9AE188
:103980000E94301220E030E0AE014F5F5F4F61E0F7
:1039900083E00EDFFE01E80FF11D6781611511F074
:1039A000812FA3DD2996E3E00C944C3ECF92DF9269
:1039B000EF92FF92CF93DF936B017C01C42FD22F44
:1039C000F7FE0AC00E942D12F094E094D094C094A7
:1039D000C11CD11CE11CF11C2D2F4C2FC701B601BD
:1039E0006BDADF91CF91FF90EF90DF90CF90089549
:1039F000FF920F931F93CF93DF93F090D701109115
:103A0000E2010091E301F0FC03C0802F012F182F89
:103A1000612F802F0E941210EC01892B59F00E9417
:103A2000EE11802F0E948D1181E00E94F710812FEE
:103A30000E948D11F3FC48C08091EA019091EB0146
:103A4000892B71F088E29CE194DD6091EA0170912C
:103A5000EB01072E000C880B990B26E54DEFA6DF36
:103A600084E29CE186DD6091FB017091FC01809114
:103A7000FD019091FE0126E44091FF011DDA809145
:103A8000E8019091E901892B61F080E29CE171DD10
:103A90006091E8017091E90180E090E024E04EEF50
:103AA0000BDA209789F0B4DC81E00E94F7100E94C5
:103AB000EE118DE19CE10E942A126A817B8180E0F7
:103AC00090E026E54DEFF8D9CDB7DEB7E5E00C94F0
:103AD0004A3E81E08093BE010E94EB108BE19BE1A6
:103AE0000E942A12609134017091350180E090E0CB
:103AF00024E04FEFE1D987E19BE13BDD60913601A6
:103B00007091370180E090E024E04FEFD5D984E157
:103B10009BE12FDD60913A0170E080E090E026E4C7
:103B200044EFCAD988E29BE124DD609138017091AD
:103B3000390180E090E024E04EEFBED98FE09BE1B8
:103B400018DD6091B7017091B80180E090E026E542
:103B50004DEFB2D982E29AE10CDD6091B90170912A
:103B6000BA0180E090E026E54DEFA6D98091B10141
:103B700082FF05C00E94EE118AE20E94F7108CE1DC
:103B80009AE1F7DC60913C01062E000C770B880B64
:103B9000990B26E54DEF0ADF65E188EB9BE081CAD2
:103BA0000895CF93DF93EC0188810E948A1185E606
:103BB0009AE10E945A1189810E948A110E94EE1195
:103BC0006A817B8180E090E026E54DEF75D9DF9139
:103BD000CF910895A9E0B0E0E0EFFDE10C94273E1D
:103BE00089870E94A4128091D601813009F4B3C064
:103BF00018B880914C0187B98091450185B984B985
:103C00000E943F2E02E010E0C12CD12C7601809161
:103C10004E01A895806C80937C000E94492E809173
:103C20007A00806480937A0080917A0086FDFCCFD0
:103C300064E66983812C912C540180917A00806420
:103C400080937A0080917A0086FDFCCF8091780085
:103C500090917900880E991EA11CB11C0E94462EDD
:103C60008981815089838111E8CFA091B701B091FA
:103C7000B801A50194010E94173E4B015C018AE046
:103C8000B694A794979487948A95D1F7013011053B
:103C900009F057C015B880914C0190914B01892BC8
:103CA00087B98C149D04AE04BF0408F051C0209164
:103CB000B9013091BA01A4E6B0E00E94023E9B0136
:103CC000AC012C193D094E095F090E94173E69831A
:103CD0007A838B839C83A7019601281939094A09A5
:103CE0005B09A8EEB3E00E94173E6D837E838F834D
:103CF000988720913601309137012A57354E40E0A0
:103D000050E069817A818B819C810E94BE3D6D81EA
:103D10007E818F8198850E94BE3DC9016985613091
:103D200049F460913801709139016217730780F48A
:103D3000861B970B20EC2093B6012996ECE00C949F
:103D4000433E01E010E07501640180914F0161CFB5
:103D500080E090E0EFCF80E090E0EFCFAAE0B0E02D
:103D6000E4EBFEE10C94213EA89518B880914C013B
:103D700087B98091450184B985B980914F010E942E
:103D80004F135C0180914E010E94441289839A83F3
:103D900015B88091480184B980914E010E944F135B
:103DA000459708F0B1C08091480185B980914E01D6
:103DB0000E944F138C0180914B0187B988B915B8C7
:103DC0008091460184B980914E010E944F134C01AD
:103DD00080914F010E9444127C018091490184B975
:103DE00080914F010E944F136C0129813A81203349
:103DF000314108F08DC00236110508F085C069EA2E
:103E0000E616F10408F0A0C086E2C816D10408F452
:103E10007BC0D8012DE83DE247E050E00E94173E0C
:103E2000A091B901B091BA01BA83A9839D01201B69
:103E3000310B40E050E00E94BE3D49015A01A9818A
:103E4000BA81AC19BD092DE83DE247E050E00E947F
:103E5000173E960140E050E00E94BE3D0E3DB3E0AB
:103E60001B0708F059C062E0880C991CAA1CBB1CF7
:103E70006A95D1F7CA01B901680D791D8A1D9B1D8C
:103E800025E030E040E050E00E94BE3D225A3E4F27
:103E90004F4F5F4FAAE0B0E00E94173E4B015C011C
:103EA000B4E68B169104A104B10408F4DFC0FF242A
:103EB000FA943090DA01E0913F01ED8380913F0167
:103EC00090914001382F292F38872F83309140015E
:103ED0003E8380E0831508F4F6C08436A9F093E0B1
:103EE000391690F4A7E03A9EF0011124E050FE4FFD
:103EF0002F8138853183208383829482A582B68284
:103F0000F28233943092DA012A96E2E10C943D3E3B
:103F10000C3653E1150771CFEEEDCE16E3E0DE0669
:103F200050F4CA01B90122E0660F771F881F991F5C
:103F30002A95D1F7A1CF280D391D4A1D5B1D569535
:103F4000479537952795A2CF29813A812A153B05B8
:103F500008F47FC08E149F0408F47BC04091B9011F
:103F60005091BA014217530721F4215031093A8385
:103F7000298320913601309137012A57354EA98186
:103F8000BA81AA19BB090E94023EA981BA814A1BC3
:103F90005B0B9A0140E050E00E94BE3D29013A01CE
:103FA00020913401309135012A57354ED401AE1994
:103FB000BF090E94023E970140E050E00E94BE3DD2
:103FC000E981FA81EE3DF340B0F4A2E0440C551CC7
:103FD000661C771CAA95D1F7CA01B901640D751D3D
:103FE000861D971D25E030E040E050E00E94BE3D78
:103FF00049015A0155CF8EEDE81683E0F806F0F43A
:10400000283F94E2390791E04907510550F4CA016D
:10401000B901F2E0660F771F881F991FFA95D1F753
:10402000DDCFA9E0B0E00E94173E640D751D861D2E
:10403000971D2AE030E040E050E0D8CF5301420124
:10404000820E931EA41EB51EB694A79497948794CF
:1040500027CF7AE0872E912CA12CB12CAFE8EA165D
:10406000A2E1FA0618F4812C912C540181E0B2DD12
:104070006C01E12CF12CA5019401220F331F441F88
:10408000551F65E086169104A104B10420F4280DA3
:10409000391D4A1D5B1DAAE0B0E00E94173E611564
:1040A00071058105910521F464E670E080E090E0FF
:1040B000C616D706E806F90608F0F9CE46015701FC
:1040C0003EEFF32EF6CEA82FB0E0BA87A987B7E06F
:1040D000B89F90011124F901E050FE4F6F019081CB
:1040E000FD819F1398C0D60111969C91BE819B13B0
:1040F00092C0E12C02E010E020E030E04F2DC5013D
:10410000B4010E94400E8F3F09F076C0F601228074
:10411000438054806580768002E010E020E030E04B
:10412000422DC301B2010E94400ED82EFFEF8F1323
:104130001DC02F1002C0DD24D394EF2C9501840103
:10414000422DC301B2010E94400E8D1591F087E00F
:1041500029853A85829FF001839FF00D1124E0505C
:10416000FE4F83829482A582B682F2822F2C240194
:104170003501D301C201B695A79597958795898397
:104180009A83AB83BC83F22C27E0A985BA852A9F4A
:10419000F0012B9FF00D1124E050FE4FB281B98742
:1041A00083809480A580B680EF2C93018201898161
:1041B0009A81AB81BC81081B190B2A0B3B0B4985EB
:1041C000C501B4010E94400E87FD29C009811A81F2
:1041D0002B813C81040D151D261D371D4985C50108
:1041E000B4010E94400E1816D4F08AE08093D601E4
:1041F00084E6530142016ECEC501B40124E130E0F2
:1042000040E050E00E94BE3D29833A834B835C83AB
:1042100024013501B9CF8F5F24013501EACF88EC45
:10422000E8CFEF920F931F931092DA010E94970F3D
:1042300095DD8091DA018130A9F40091030210919B
:1042400004022091050230910602E090020243E050
:1042500069E170E080E090E00E94400E982F81E0DC
:10426000913009F080E01F910F91EF900895A4E044
:10427000B0E0EDE3F1E20C94213E8B839C832B8133
:104280003C81232B51F46FEF7FEF7C836B838B8119
:104290009C812496E2E10C943D3EEB81FC8163819C
:1042A000748185819681A7EFEA2E0AE010E020E074
:1042B00030E042810E94400E87FDE5CF0E94A412AB
:1042C0008091D6018130F9F2EB81FC81F180E080B0
:1042D00017B818B814B815B86F2D8E2D0E94970F07
:1042E00080914B0187B980914F010E9444128C014B
:1042F00080914C0187B980914E010E9444120817A9
:10430000190720F46E2D8F2D0E94970F80914B017D
:1043100087B98091460184B912E380914F010E94D0
:1043200044129C018039914040F487B190914C0136
:10433000892B87B92832310538F01A9529F084E69F
:1043400090E00E94BE0EE9CF17B814B8EB81FC8153
:10435000618180810E94970F90914E0180914F0161
:10436000906C492E806C8A8315BC82E084BD81E20A
:1043700087BD18B890937C000E943F2EFFEFF98311
:10438000C12CD12C7601C394812C912C540183949F
:1043900080E090E002E310E056ED552EA895C2971C
:1043A00058F480914C0187B98091450185B984B951
:1043B0000E94522E14B815B80233110558F480919A
:1043C0004B0187B98091460185B984B90E94522E6C
:1043D00014B815B880914B0187B98091450185B912
:1043E00084B940927C0050927A0080917A0086FDD8
:1043F000FCCF50927A0080917A0086FDFCCF20900D
:104400007800309079002A8120937C0050927A00C5
:1044100080917A0086FDFCCF50927A000E944E2E49
:104420000E9409108091460185B984B90E94522EDC
:1044300014B880917A0086FDFCCF0091780010912D
:10444000790080914C0187B98091460185B984B982
:104450003A8130937C0050927A0080917A0086FDF8
:10446000FCCF50927A0080917A0086FDFCCF60905C
:1044700078007090790040927C0050927A00809190
:104480007A0086FDFCCF50927A000E944E2E0E9448
:1044900009108091450185B984B90E94522E14B843
:1044A00080917A0086FDFCCF809178009091790010
:1044B000A30160E070E0420D531D611D711D840E6B
:1044C000951EA61EB71EAC0160E070E0400F511FA4
:1044D000611D711DC40ED51EE61EF71E6981615057
:1044E000698361115BCF17B815B88C149D04AE04B5
:1044F000BF0408F047C080913401909135012AE053
:10450000289FD001299FB00D1124A70196012819D9
:1045100039094A095B090E94173EA50194010E94CE
:10452000BE3D80913801909139018217930758F46C
:10453000F901E81BF90BFC83EB8380EC8093B60157
:104540000E94A412A4CEEB81FC81638174818581D9
:1045500096812AEFE22E08EE13E020E030E042815F
:104560000E94400E21E030E03C832B83181614F4A7
:104570001C821B826B817C817195619571097C83A2
:104580006B83DBCF8FEF9FEF9C838B83D6CFA0E035
:10459000B0E0EDECF2E20C94213EF82EB62E642E43
:1045A000712C20E1429F60011124F601EA5AFE4F6E
:1045B0001082118284EF8283178210861186128600
:1045C0001382148215821682148613861786168625
:1045D0008091D601813009F42FC28A3059F490902D
:1045E000DA01C0E0D2E0A12CA91408F4DEC184E60F
:1045F000A81222C26B2D8F2D0E941210FC01892B54
:1046000031F0828193818C3D954008F415C26B2D69
:104610008F2D0E94970F02E010E0A1E15A2E0E9418
:10462000A4128091D601813009F4F0C118B88091AC
:104630004C0187B98091460185B984B980914E01BA
:104640000E9444125C0180914F010E944412A81AFA
:10465000B90A15B814B8E12CF12CBFEFEB1AFB0A1C
:10466000652D809145010E94FE1380914E010E94AC
:104670004412EC01A816B9060CF0B8C1CA19DB093E
:104680002EE7E216F10409F0B6C1CB34D1050CF4E3
:10469000D8C1A895CC32A1E0DA07FCF2B1E0EB1664
:1046A000F10409F0D0C1C531E5E0DE0708F4CBC163
:1046B000F9E05F2E0130110509F095C10E94A412A6
:1046C0008091D601813009F4A1C115B887E087B97E
:1046D00018B88091480184B980E480937B0084E419
:1046E00080BF80914E01806480937C0086E080933F
:1046F0007A000E94482E1092800010928100109241
:1047000085001092840087E286BB8091480185B9BC
:104710008091D6018F3109F06DC280914B01809557
:10472000877091E09093810087B9812C912C86B39A
:1047300085FD0DC080FFFBCF91E096BBA895BFEF34
:104740008B1A9B0AE0E48E16E6E09E0681F7109233
:10475000810090E296BBC0918600D091870014B88A
:104760002091840030918500C217D30738F480FF70
:1047700005C081E086BBFFEF8F1A9F0A86E9809310
:104780007A0080917B008F7B80937B0080914E012B
:104790000E9444128C0115B88091480184B920E42C
:1047A000821626E0920608F031C1CE01A0E0B0E00A
:1047B000A12CB12C5401992488248C2A992AAA2A44
:1047C000BB2A83E088169104A104B10408F415C241
:1047D00092E0891A9108A108B108A8E38A16A9E80D
:1047E0009A06A1E4AA06B10408F407C2C501B401FF
:1047F00028EE33E040E050E00E94BE3D49015A01FE
:1048000057EFF52E20913C018091B7019091B801AE
:1048100061E0820F911D27FD9A950E94A30FDC0194
:10482000A50194010E94173E20E233E040E050E0F1
:104830000E94BE3DB4EF49015A01FB1214C08091A1
:104840003A01882E912CA12CB12C28173105410555
:10485000510508F4D5C1DA01C90188199909AA09D5
:10486000BB094C015D01F601EA5AFE4F80913F0100
:104870009091400198278927982791838083F2821D
:10488000278330874187528783829482A582B682AC
:1048900094EFF912B9C1A0EA8A16A6E89A06A1E037
:1048A000AA06B10408F0B8C137EFE32E02E310E026
:1048B00020E030E04F2DC501B4010E94400E813050
:1048C00009F0A4C02AE0222E312C412C512CF8EF03
:1048D000FF160CF0E2C1C501B401A20191010E94D2
:1048E000BE3D49015A01F39428EFF212F0CF0E9425
:1048F000A4128091D601813009F488C0E40118B86F
:1049000080914C0187B915B88091450184B9809197
:104910004E010E9444128C018091450185B9969404
:1049200087948114910409F0C2C114B815B8A895F0
:1049300085E08093B40180914E010E9444120817D3
:10494000190718F44C01801A910A209709F0B4C194
:1049500080914E010E9444129C0189E18093B40130
:10496000A8950217130718F4E901C01BD10BC8154D
:10497000D90508F04BC0830184E0000F111F8A9510
:10498000E1F70A5A1E4F94012C1B3D0BA4EFB1E036
:104990000E94023E940140E050E00E94BE3DD801DA
:1049A0001F963C932E931E9731C088818F1116C09D
:1049B00089818B1581F46B817C818D819E81E12CB5
:1049C0000AE010E020E030E04A810E94400E8F3F74
:1049D00011F4B3E6AB2EA394279606CE8B11FBCF32
:1049E00089818F15E7CF01E010E019CEE0E0CE2FEE
:1049F000F0E0DF2F45CE84EFE81681E0F80609F0FD
:104A000048CEA895CC3291E0D907E8F49091D60130
:104A1000943160F4F601EA5AFE4F82819A3009F02F
:104A20004EC18A3F1CF08BE08093D6010E94A412F5
:104A300017B818B814B815B8CDB7DEB7E2E10C94C2
:104A40003D3EA895E3CF80914E010E9444128C0117
:104A5000570120E030E090904E01A114B10409F01C
:104A6000A6C02017310708F0ABC0021B130B98013A
:104A7000A8EEB3E00E94023E9E0140E050E00E949A
:104A8000BE3DF601EA5AFE4F37872687612C053670
:104A9000110510F4E3E06E2E892D0E9444124C01A2
:104AA000252D2071722E211509F48DC00E94342EFF
:104AB00080914E010E9444128815990518F4540102
:104AC000A81AB90AB3E06B12A1CF62E0CE01800F41
:104AD000911F0E94A30F9C01D7010E94023E7B01FF
:104AE0008C01711441F0AAE0B0E09B01AC010E947E
:104AF000173E7B018C01C7EF88E3E81689E8F806CA
:104B000081E40807110558F0C801B70128EE33E029
:104B100040E050E00E94BE3D79018A01CAEFA8EE54
:104B2000B3E0A80197010E94173E22E434E040E080
:104B300050E0711004C020E134E040E050E00E94F9
:104B4000BE3DF601EA5AFE4F80913F01909140012F
:104B500098278927982791838083C283E782F086EC
:104B6000018712872383348345835683213095E35D
:104B700039079CE04907510548F0CA01B9012AE00C
:104B800030E040E050E00E94BE3DCF5FD5010E9482
:104B9000173E28EE33E040E050E00E94BE3D53FC5B
:104BA000CF5F7AE0872E912CA12CB12C16C0F1E0BA
:104BB000AF1AB108892D0E9444129C01A8954BCFD1
:104BC00000E010E067CF0E94392E72CFCA01B90110
:104BD000A50194010E94BE3DCF5F21153105A1E0E2
:104BE0004A07510598F7F601EA5AFE4F34872387A2
:104BF000C5870CCF80914C0194CD44EFF42E02CEAA
:104C0000812C912C54012FCEB1E28B16BEE49B0671
:104C1000A104B10408F048CE80914E010E944412D4
:104C2000853D9340C8F714B81092B50180914E01AC
:104C30000E944412EC0181E08093B50180914E0105
:104C40000E944412AC018091480184B9DE01A41B8A
:104C5000B50BC091B701D091B801CD010496099769
:104C600088F09E010E94113E9A0140E050E00E94AF
:104C7000E03D80913B01820F80933B01C80DD11D27
:104C800087FCDA950C1B1D0BC801C1968336910574
:104C900008F00ACE00933C0107CEAAE0B0E0A501DF
:104CA00094010E94173E4B015C01FA941DCEF7D788
:104CB00081E0881A910835CEF2D7219746CE853FFC
:104CC0000CF0B1CE83819481A581B6810597A105B1
:104CD000B10508F0A8CEAACE982F862F40E0692F04
:104CE00056DCE6E5F1E0638174818581968126E4F6
:104CF00042810C945C170895A0E1B0E0E2E8F6E28E
:104D00000C94223E382E7B0180913F01809342011A
:104D1000809140018093430180914101809344013F
:104D200080914A0121E03212CAC190914501892B3C
:104D300084B985B9A0D74091B9015091BA015A837D
:104D4000498380914E010E944412A981BA81A81B17
:104D5000B90BBE83AD830091B9011091BA01809166
:104D600050010E944412F801E81BF90B4D815E814D
:104D70009A0140E050E029833A834B835C83C090E2
:104D80003601D090370111E088E49DE02DEF39E045
:104D90002E173F0708F043C28091D6018E3109F0EB
:104DA000B7C18091D701982F93218460911561F04C
:104DB00031E033120BC09091E20180913F019813D2
:104DC00005C03092D60182E08093D7018091D8014E
:104DD00081608093D8014D815E81E416F50620F450
:104DE0004E195F095E834D83AD81BE812DE83DE2A2
:104DF00047E050E00E94173E9F0140E050E00E94D3
:104E0000BE3DAAE0B0E00E94173E5AE7C51A55EE33
:104E1000D50A960140E050E029873A874B875C87A6
:104E20000E94BE3D69017A019091470131E0331241
:104E300075C180914B0187B988B980914601892B52
:104E400084B995B980914F010E944F138D839E8341
:104E5000A090B901B090BA01809150010E94441213
:104E6000A81AB90A4D815E818A0120E030E0E09104
:104E70003401F0913501B501A114B10411F461E0E0
:104E800070E08D819E81861B970B0E94973D2B01C0
:104E9000612C712CA0E1B7E2A90198010E94173E94
:104EA0009F012A57354E40E050E00E94E03D30938C
:104EB000EB012093EA01F0E1AF16B10408F065C000
:104EC00080914A0121E0321258C190914601982BFD
:104ED00094B985B980914F010E944F138D879E87A9
:104EE000A090B901B090BA01809150010E94441283
:104EF000F501E81BF90BAD85BE85CD01A0E0B0E062
:104F00008D839E83AF83B887809034019090350164
:104F1000AD85BE852DE83DE247E050E00E94173E9A
:104F2000309711F4E1E0F0E09F0140E050E00E9492
:104F3000BE3DAAE0B0E00E94173E3AE7831A35EE84
:104F4000930A940140E050E02D873E874F87588BAD
:104F50000E94BE3D49015A01421653066406750679
:104F6000A0F4A0E1B7E22D813E814F8158850E94D7
:104F7000173E2D853E854F8558890E94E03D309330
:104F8000EB012093EA0124013501C414D504E604A1
:104F9000F70408F420C1A0E1B7E229813A814B81EE
:104FA0005C810E94173E29853A854B855C850E946D
:104FB000E03D49015A012601370131E039838091F2
:104FC000EE019091EF01A091F001B091F1018415F3
:104FD0009505A605B70508F409C1D301C2011D82D4
:104FE0008093F2019093F301A093F401B093F50143
:104FF0008091410191E040E060913F01391203C08E
:10500000682F80914001C3DA0E949C0F8091D701E4
:1050100082FFEFC00091590110915A0120915B016C
:1050200030915C016091FB017091FC018091FD0168
:105030009091FE01E09058014091FF010E94400EC6
:10504000813009F4D9C0832D84608093D70180E03A
:105050000E9495134092EE015092EF016092F00190
:105060007092F101B981B093E7019092ED018092C5
:10507000EC018091590190915A01A0915B01B0918E
:105080005C018093FB019093FC01A093FD01B09320
:10509000FE01809158018093FF018091410180932E
:1050A000E101E1E03E12ACC080913F018093E2015A
:1050B000809140018093E3011092DF019DC09091A7
:1050C0004601892B84B980914F010E944F138D8333
:1050D0009E83809150010E944412FC012D813E81EB
:1050E000C901A0E0B0E022273327A901281B390B12
:1050F0004A0B5B0B29833A834B835C83C09034015A
:10510000D090350180ED97E021ED33E012E040CE04
:105110008EE18093D6013092D7015DCE18B8809190
:105120004C0187B98091450185B9892B84B980915B
:10513000B9019091BA019E838D8380914E010E94A6
:105140004F13AD81BE81A81BB90BBE83AD83809187
:1051500050010E9444125C01ED81FE818F0120E02C
:1051600030E030952095109501951F4F2F4F3F4F00
:10517000E0913601F09137017ECE90914501892B67
:1051800084B9E091B901F091BA01FE83ED83809179
:105190004E010E944F132D813E81281B390B3E8703
:1051A0002D87809150010E944412FC014D855E853F
:1051B000CA01A0E0B0E022273327A901281B390B40
:1051C0004A0B5B0B2D833E834F83588780903601BB
:1051D000909037019DCE8090EA019090EB01092CD0
:1051E000000CAA08BB0842E04983E9CE51E05D8388
:1051F000F7CEAD81A1112BCF6096E1E10C943E3E3C
:1052000080913F019091400198278927982790939A
:10521000E3018093E20181E08093DF01EDCFF1E6CD
:10522000EF16F10448F72D813E818217930720F78E
:1052300080914E010E9444127C0180914F010E9496
:105240004412E81AF90A3AEFE316F10408F044C0F0
:105250008FE18093D601812F84618093D701113033
:1052600081F5A0913601B0913701AA57B54E82E081
:105270008093DF018AE08E9D90018F9D300D112477
:105280000E94023EAD81BE819D0140E050E00E943F
:10529000BE3D809138019091390182179307C8F47F
:1052A000281B390B3093E9012093E801113009F1F3
:1052B00090904601E0914C01E98300E091E1892E54
:1052C00020C0A0913401B0913501AA57B54E83E0BA
:1052D000CFCF20E030E0E6CF80E28093D601812F6F
:1052E00084608093D701113009F093C088E08093E7
:1052F000DF0190904501B0914B01B98301E020E1BD
:10530000822EF981F770F983809150018064809337
:105310007C00BFD42AE02D83C12CD12C7601AA2495
:10532000AA9483E0B82EA895682D809147010E9429
:10533000FE1380914A01892984B9011509F46DC0D1
:1053400086B1398183238111FBCF94B880917A0093
:10535000806480937A0080917A0086FDFCCF8091F2
:10536000780090917900011509F45DC0C80ED91E2E
:10537000E11CF11CBD81B150BD83B111D4CFC70177
:10538000B6012AE030E040E050E00E94E03DA0910C
:10539000B901B091BA010E94173E20E034E040E02C
:1053A00050E00E94E03D3093EB012093EA0180E45D
:1053B0008093B6018091D80181608093D80180915B
:1053C00041018093E1016091400190913F011130D2
:1053D00019F0262F692F922F9093E2016093E30139
:1053E00040E0D5D88091590190915A01A0915B017C
:1053F000B0915C018093FB019093FC01A093FD01AF
:10540000B093FE01809158018093FF010E949C0F90
:10541000F3CE89E08093DF014BCF86B149818423AD
:105420008115D9F392CFD501A81BB90BCA1ADB0A93
:10543000E108F1089FCFA0E0B0E0E1E2FAE20C94CD
:10544000273E9091D601913009F4BAC2A8950E94E6
:10545000370F15B88091460184B980914B0187B907
:1054600088B960E1809147010E94FE1380914F014D
:105470000E944F13EC018091460190914701892BC6
:1054800084B980914F010E944F138C018091460195
:1054900084B90C171D0720F40530110508F420C14C
:1054A000C13D23E0D20708F161E1809147010E94EC
:1054B000FE1380914F010E944F13EC018091470130
:1054C00085B990914601892B84B980914F010E9442
:1054D0004F138C0115B88091460184B90C171D0734
:1054E00020F40530110508F4FBC08091D801C031CB
:1054F000D10508F4F4C08111EBC098EEC92EDD246B
:10550000D394CB3E41E0D40718F488E2C82ED12CC6
:105510008091460190914A01892B84B980914F0175
:105520000E94F6138C0180914A0185B980914F0148
:105530000E94F6139C017C01E01AF10AC8018C0D4F
:105540009D1D8217930708F05DC08091470184B9C3
:1055500085B918B880914C0187B9809150010E949B
:10556000F61317B8BB24B3948C3B924020F006305E
:10557000110508F0B12C80914B0187B98091500141
:105580000E94F6138C0180914E010E94441217B8BC
:105590008017910738F4081B190B023C114010F4D6
:1055A000BB24B39480914C0188B987B9809145019F
:1055B00090914A01892B84B915B880914E010E94BF
:1055C000F6134C0180914A0185B980914E010E94E9
:1055D000F6138C010819190918B880914C0187B984
:1055E0008091450190914A01892B84B985B98091B8
:1055F00050010E94F61388349F4008F05DC2B11438
:1056000009F4F3C218B880914C0187B98091450123
:1056100090914A01892B84B985B980914E010E94ED
:10562000F6138C018091450185B980914E010E944D
:10563000F6139C017801E81AF90A2C0D3D1D20177C
:10564000310708F045C0C090B901D090BA018091EF
:10565000470184B915B880914B0187B988B9809109
:1056600050010E94F61318B88D3C904108F04CC1CF
:10567000C6010C97DD24D3940817190708F4D12C20
:1056800080914B0187B98091460190914A01892B05
:1056900084B985B980914F010E94F6138C018091E5
:1056A000460185B980914F010E94F613081B190B22
:1056B00015B880914B0188B987B9809150010E943B
:1056C000F613813D934008F493C2D11409F493C2B8
:1056D0008091D801C13D43E0D40708F083C18E0119
:1056E0008091D80181115FC18091460184B915B8BC
:1056F00080914B0187B988B9C3D2809146019091BE
:105700004701892B84B980914F010E944F138F3537
:105710009D4018F0B80182E0EFDA8091D801811144
:1057200042C180914C0187B918B880914501909190
:105730004701892B84B985B980914E010E944F138E
:105740008034964008F064C0809150010E94441259
:10575000EC0180914F010E9444127C0160E1809134
:1057600047010E94FE1380914E010E944F136C016D
:1057700015B886D28091450185B980914E010E946D
:105780004F139C0180E4C81686E0D80608F000C1DB
:105790002133314108F4FCC014B815B880914C0194
:1057A00088B96ED28091450184B980914E010E94E2
:1057B0004F13853F910508F0EBC060E180914701F0
:1057C0000E94FE1380914E010E944F136C018D3D8B
:1057D000924008F0AEC082E28093D6018091D80159
:1057E00081608093D8018AE08093DF01809141013C
:1057F0008093E10180913F018093E201809140011B
:105800008093E301CE19DF09D093E901C093E80149
:105810008091D8019091DA01892B8111C4C00E9436
:10582000AE1E8091DA01813009F0BDC0C091020244
:105830008090030290900402A0900502B0900602AE
:10584000E12C08EB1BE020E030E04C2FC501B40157
:105850000E94400E813009F0A4C008E91AE320E05C
:1058600030E04C2FC501B4010E94400E8F3F09F07B
:1058700098C01092DA0115B88091470184B98091DF
:105880004B0188B987B9809150010E944F130F973F
:1058900008F089C08091460184B980914F010E942F
:1058A0004F13EC018091470185B990914601892BF6
:1058B00084B980914F010E944F139C01C817D907EA
:1058C00008F071C08C1B9D0B893E934008F46BC09F
:1058D0008091D901843209F478C084E28093D9019F
:1058E0008DE08093E001809141018093AA01809135
:1058F0003F018093AB01809140018093AC013093D4
:10590000AE012093AD014FC0DD24D394B9CE88B948
:1059100015B880914E010E94F6139C01409134010C
:10592000509135011EC185B918B840C1813C9241E2
:1059300055C18091450185B9A3D115B880914E011B
:105940000E944F13853F910518F58091D601813251
:1059500029F48091D80181608093D80181E28093FD
:10596000D6018BE08093DF018091EE019091EF01F1
:105970008C159D0508F04CCFC601A0E0B0E08093E7
:10598000EE019093EF01A093F001B093F1012ECFBF
:105990008091D601813209F43BCFB80181E0ACD9C6
:1059A00037CF1092DA018091D601811519F08A3033
:1059B00009F063C00E94AE1E17B818B814B815B825
:1059C000CDB7DEB7ECE00C94433E8091D801826005
:1059D0008093D8018091AD019091AE0128173907CD
:1059E00010F37BCF811146C080914E010E9444127A
:1059F000EC0180914F010E9444127C018091500182
:105A00000E9444128C0117B880914B0188B9809193
:105A10004A0185B990914601892B84B982E390E0CF
:105A20000E94BE0E80914B0187B980914F010E9468
:105A300044120A97F8F483E28093D9018CE08093B2
:105A4000E001809141018093AA0180913F01809300
:105A5000AB01809140018093AC01CE018E199F096A
:105A60009093AE018093AD01C01BD10BD093B001D8
:105A7000C093AF010E941A1496CF8F3109F09CCFCA
:105A80009091D70194FF98CF8091E2016091E3015A
:105A900090FD03C0962F682F892F0E941210892B2A
:105AA00009F48ACF1092D6011092D7018091D801C3
:105AB0008E7F8093D80180CF29E184E02093D701A5
:105AC0008093DF018FE18093D6018091D8018160BE
:105AD0008093D801409141014093E101E091400160
