:100000000C94350E0C94520E0C94520E0C94520E0D
:100010000C94520E0C94520E0C94520E0C942C2EE6
:100020000C94520E0C94520E0C94520E0C94042EFE
:100030000C94520E0C94520E0C94520E0C94520EC0
:100040000C941A2E0C94520E0C94520E0C94520EC8
:100050000C94520E0C94520E0C94520E0C94520EA0
:100060000C94520E0C94520E666F756E6421004E05
:100070006F20636F6D706F6E656E740052647300F5
:1000800043677300567468002D6368006465702EC2
:1000900000656E682E00565F4754005472696163B4
:1000A00000534352004279652100426174746572C5
:1000B000793F004300495F52002D022D00496365DE
:1000C0006F00566265006846457200495F006846E9
:1000D0004500504E50004E504E00424A5400565F6C
:1000E0004753286F66662900496473730046455478
:1000F000004D4F5300494742540056660056540085
:1001000050555400525F424200554A54002D060794
:100110002D00565F6C00495F6C002D032D00536568
:100120006C6563740053686F772056616C756573F6
:100130000041646A7573746D656E74005465737400
:10014000004F66660052682B0052682D002B5268E3
:100150002D002B526C2D00313220313320323300F0
:100160005371756172652057617665005A656E65D9
:1001700072004553520001020304050100080040CB
:100180000000010004467265712E20436F756E7485
:100190006572004469736368617267696E670052D3
:1001A0006800526C004368617267696E6700436162
:1001B00070204C65616B6167650052434C204D6F48
:1001C0006E69746F720044696F64652F4C4544001A
:1001D000646F6E652100487A006400FA00F401E85B
:1001E00003C40988131027A86150574D003C4D6582
:1001F0006E7520546573743E0050726F62696E674D
:100200002E2E2E0076312E35366D5F41592D4154FC
:100210005F32304D00436F6D706F6E656E742054A9
:1002200065737465720054696D656F757400536809
:100230006F7274204369726375697421004372653B
:100240006174650052656D6F7665004C6F61640086
:1002500053617665004578697400233200233100CC
:100260004572726F722100436865636B73756D0030
:1002700041436F6D700056636300567265660052AD
:10028000300043300052692B0052692D00010410E8
:100290000208200102040001028111530F940D266F
:1002A0000CF40AF00911095008A6070F0789061077
:1002B00006A3053F05E40491044304FC03B9037A53
:1002C000033F030703D1029E026D023E020F02E1CB
:1002D00001B20182014E010F01EE59CB52AD4C60CB
:1002E00047BC42A43E003BBF37D0342932C02F8CDC
:1002F0002D872BAC29F5275E26E52485233D220A90
:1003000021EA1FDC1EDD1DED1C0A1C331B681AA729
:1003100019F01841189B17FD166516D5154A15C614
:10032000144714CD135813E7127B121312AE114E5B
:1003300011F0100000BA03870358032E030703E4EB
:1003400002C302A402880266706E056D006B4D0543
:100350000A0605060A050A0609060A050A06090626
:100360000A050A0609060A050A0605060A050A0616
:10037000050A06090A06090A060000000000000036
:100380000000110A06000010000000100E0000100E
:100390000100009000000090000000900000189004
:1003A0000000189000001808010018040E00180240
:1003B00000001801000098000000580000003800FC
:1003C00000FE1F000000380000005800001E9804C6
:1003D000002218070022180700229807001E18881C
:1003E0000F2218900022189000220090001E00900A
:1003F00007000090000000900000009000000090B6
:100400000F00000000000010000000900F0000909E
:10041000000000900000009000000090070018907D
:100420000000189000001889000018870F001807B6
:100430000000180F0000980000005800000038006D
:1004400000FE1F000000380000005800001E980049
:10045000002218010022180200221804001E1808A9
:100460000E2218100122189000220090001E009009
:10047000000000900000009000000010010000103B
:100480000E0000000000001000000090030000902B
:1004900004000090080000900800009008003090D0
:1004A000080030900800F69F0400368003003600F4
:1004B000001C06000022060000023602000236037D
:1004C0000002F61F003A36130022361200220610F0
:1004D000001C0610000036100000361000FEF71F4A
:1004E00007003090080030900000009000000010DD
:1004F000070000100800001008000090080000101D
:10050000070000000000001000000010070000902D
:10051000080000900000009000000010070030105C
:100520000800301008FEF79F08003610070036104C
:10053000001C0610002206100002361100023613BD
:100540000002F61F003A36030022360100220600A0
:10055000001C060000003600000036000000F69F78
:1005600003003090040030900800009008000090D4
:10057000080000900800009008000090040000901F
:100580000300000000000010000000900300009035
:1005900004000090080000900800009008003090CF
:1005A000080030900800F69F0400368003003600F3
:1005B000001C36000022360000023602000236031C
:1005C0000002F61F003A36130022361200223610BF
:1005D000001C3610000036100000361000FEF71F19
:1005E00007003090080030900000009000000010DC
:1005F000070000100800001008000090080000101C
:10060000070000000000001000000010070000902C
:10061000080000900000009000000010070030105B
:100620000800301008FEF79F08003610070036104B
:10063000001C36100022361000023611000236135C
:100640000002F61F003A360300223601002236006F
:10065000001C360000003600000036000000F69F47
:1006600003003090040030900800009008000090D3
:10067000080000900800009008000090040000901E
:100680000300000000000010000000900300009034
:1006900004000090080000900800009008003090CE
:1006A00008003090080030900400F09F031C3000D8
:1006B0000022300000023000000230000002300052
:1006C000003A30000022300000223000001C3000D0
:1006D000000031000000330000FEFF1F0000331057
:1006E00007003190080030900000009000000010DA
:1006F000070000100800001008000090080000101B
:10070000070000000000001000000010070000902B
:10071000080000900000009000000010070030105A
:10072000080032100800339008FEFF1F0700330056
:1007300000003200001C30000022300000023000B7
:100740000002300000023000003A30000022300089
:1007500000223000001C30000000F01F000030902C
:1007600003003090040030900800009008000090D2
:10077000080000900800009008000090040000901D
:100780000300000000000010000000100E00001028
:1007900001000090000000900000009000003090E8
:1007A0000000309000003610010036080E003604BC
:1007B00000003602000036010000B600000076009E
:1007C00000FE3700000076000000B600001C36096D
:1007D0000022360E0002360E0002360F000236905E
:1007E0000F3A30900022309000220090001C0090C0
:1007F00007000090000000900000009000000090B2
:100800000F00000000000010000000900F0000909A
:100810000000009000000090000000900700309061
:1008200000003090000036920000368E0F00360E29
:100830000000361E000036010000B6000000760001
:1008400000FE3700000076000000B600001C3601F4
:10085000002236020002360400023608000236107A
:100860000E3A30100122309000220090001C0090BF
:100870000000009000000090000000100100001037
:100880000E000000000000710000008900000089D7
:1008900000000089000000F90000008900000089C4
:1008A0000000008900000001000000010000FFFFBF
:1008B0000100FEFF0000FC7F0000F83F0000F01F79
:1008C0000000E00F001CC0070022800300020001AE
:1008D0000002FFFF013AFFFF0122800100224001D8
:1008E000001C20E1000010110000080900FE0709AB
:1008F000000000090000000900000011000000E1F4
:100900000000000000000001000000490000004954
:1009100000000049000000490000004900000049B3
:10092000000000010000000100C0FFFF07C0FFFF42
:10093000070008FE03001CFE03001CFC01003EFC37
:1009400001003EF800007FF800007F70008CFF700F
:100950000092FF2000C2FFFF07DAFFFF0712080125
:10096000000C0401000002110000011100FE001142
:100970000000001100000011000000110000000143
:1009800000000000000000710000008900000089E4
:100990000000008900FE07F90000088900001089A6
:1009A000001C208900224001000280010002FFFF9C
:1009B000013AFEFF0022FC7F0022F83F001CF01FDE
:1009C0000000E00F0000C0070000800300000001ED
:1009D0000000FFFF0100FFFF010000010000000117
:1009E000000000E100000011000000090000000903
:1009F000000000090000000900000011000000E1F3
:100A000000000000000000100000009004000090B2
:100A10000400009004000090040000900400309056
:100A200004003090043E30100040F21F008033007C
:100A30000080330000C0330000003400003E380066
:100A4000000230000002300000023000001E3000C2
:100A500000023000000230000002F01F003E3010A3
:100A600000003010010030100100001001000010E3
:100A70000100001001000010010000100100001032
:100A80000000000000000000000000000000000066
:100A90000000F0010000FC070000FE0F00000F1E28
:100AA0000000071C008003380080033800800338F2
:100AB000000000380000001C0000001E0000000FB5
:100AC000000080070000C0030000E0010000F0000B
:100AD0000000F0000000F0000000F0000000000046
:100AE00000000000000060000000F0000000F000C6
:100AF0000000600000000000000000000000000096
:100B00000000000000000048040000480200004807
:100B1000010000C800000048010000480200004831
:100B20000400040800000408000004080000FCFFA2
:100B30001F0000081000001C1000003E1000007F85
:100B4000000080FF0000C0FF0100E0FF0300F0FF95
:100B50000700F8FF0F00FCFF1F000008000000085E
:100B6000000000080000008803000048040000485E
:100B7000040000C8070000480400004804000048C2
:100B80000400000000000000000080000000800061
:100B90000000800000008000000080000000800055
:100BA0000000800000008000000080000000800045
:100BB0000000FF7F0000000000C0FFFF01C0FFFF3A
:100BC00001C0FFFF01C0FFFF01C0FFFF01000000E7
:100BD0000000FF7F00008000000080000000800017
:100BE0000000800000008000000080000000800005
:100BF0000000800000008000000080000000000075
:100C0000000000000000000011000000110000C002
:100C1000170000001100E03F1100202010003FE00D
:100C20001F0021201000E13F101C010010240100D2
:100C30001044F13F10441120104411E01F241120F2
:100C4000001C11200000112000FE1F2000001020B9
:100C50000000102000001020000010E01F001020F5
:100C60001000F03F10000000100000001000000015
:100C70001000000010000000100000C0170000006D
:100C800010000000002D012D0000000000000000F9
:100C90000000000000000000000000000000000054
:100CA000000000000000000000000000008200863C
:100CB000008E009E00BE00FF03BE009E008E0086D8
:100CC000008200000000000000000000008200C25E
:100CD00000E200F200FA00FF03FA00F200E200C2B4
:100CE0000082000000000000000000000086018675
:100CF00001860186018601870386018601860186B9
:100D0000018601000000000000000078008400025D
:100D1000010201020102010201840048004800486A
:100D2000008601000000000000000000000000003C
:100D3000000000820082008200820082008200C6E1
:100D400000BA0002000200020000000000FE0302E0
:100D50000002000200020003000200020002000282
:100D600000FE0300000000000000000000FF010082
:100D70000100010001000100030001000100010069
:100D800001FF01000000000000440000000000100E
:100D90000038002800480044008400FE00020102E0
:100DA0000101020000000000004400000000007883
:100DB0000084000201020102010201020102018419
:100DC00000780000000000000044000000000082E5
:100DD0000082008200820082008200820082004441
:100DE000003C0000000000000000001C0022002267
:100DF0000022001200120012002200420082008233
:100E0000007200000000000000000000002400004C
:100E10000000003C004000400078004400420062B6
:100E200000DC0000000000000000000000240000C2
:100E300000000038004400820082008200820044EA
:100E40000038000000000000000000000024000046
:100E500000000042004200420042004200420062A4
:100E6000005C0000000000000000001000280010DE
:100E70000000000000000000000000000000000072
:100E80000000000000000000000000000000000062
:100E90000000000000000000000000000000000052
:100EA0000000000000000000000000100010001012
:100EB00000100010001000100010001000000010C2
:100EC0000010000000000000000000440044004446
:100ED00000440000000000000000000000000000CE
:100EE000000000000000000000000090009000489A
:100EF000004800FE0148002400FF012400240012E5
:100F00000012000000000000002000F8002C002467
:100F1000002400280030006000E000A000A000A431
:100F2000007C0020000000000000000E0211019172
:100F30000051004E0020001000C8012802240222A7
:100F400002C101000000000000000038004400441D
:100F500000640038000C001202310221014101C27C
:100F600000FC010000000000000000100010001054
:100F70000010000000000000000000000000000061
:100F80000000000000000000000000800160003050
:100F90000010000800080008000800080008001001
:100FA00000300060008001000000000600180030E2
:100FB0000020004000400040004000400040002071
:100FC000003000180006000000000010001000D6DD
:100FD000006C00280038002800000000000000001D
:100FE0000000000000000000000000000000000001
:100FF0000000001000100010001000FF0110001091
:1010000000100000000000000000000000000000D0
:1010100000000000000000000000000000000018B8
:101020000018001000100008000000000000000080
:10103000000000000000000000FC000000000000B4
:1010400000000000000000000000000000000000A0
:101050000000000000000000000000000000001878
:101060000018000000000000000000000180008067
:101070000040004000200020001000100008000880
:101080000004000400020000000000380044004496
:1010900000820082008200820082008200440044BC
:1010A000003800000000000000000010001E0010CA
:1010B00000100010001000100010001000100010B0
:1010C00000FE0000000000000000003E0042004062
:1010D0000040004000200020001000080004000232
:1010E000007E0000000000000000003C00400040C6
:1010F00000400040003800400040004000400040F8
:10110000003C00000000000000000020003000282B
:101110000028002400220022002100FF00200020DF
:1011200000200000000000000000007C000400041B
:101130000004001C0020004000400040004000204F
:10114000001C000000000000000000780004000403
:101150000002003A004600820082008200820044C1
:101160000038000000000000000000FE0080004089
:1011700000200020001000100008000800080004F3
:1011800000040000000000000000007C00820082DB
:101190000082006400180064004200820082004265
:1011A000003C000000000000000000380044008205
:1011B00000820082008200C400B80080004000402D
:1011C000003C0000000000000000000000000000E3
:1011D00000000018001800000000000000000018C7
:1011E00000180000000000000000000000000000E7
:1011F00000000018001800000000000000000018A7
:10120000001800100010000800000000000000009E
:101210000000000001C00030000C000C003000C0D5
:1012200000000100000000000000000000000000BD
:1012300000000000000000FE0100000000FE0100B0
:10124000000000000000000000000000000000009E
:1012500000000002000C003000C000C00030000C94
:1012600000020000000000000000007E00C20082BA
:101270000080004000200010000800080000000866
:10128000000800000000000000000078008400E278
:1012900000930089008900C900C900E900B2034633
:1012A000007C0000000000000000000000000010B2
:1012B0000038002800480044008400FE00020102BB
:1012C0000101020000000000000000000000007E9C
:1012D000008200820042003E0042008200820082C2
:1012E000007E00000000000000000000000000F888
:1012F000008600020001000100010001000200065A
:1013000000F8000000000000000000000000003EA7
:10131000004200820082008200820082008200423D
:10132000003E00000000000000000000000000FE81
:101330000002000200020002007E00020002000221
:1013400000FE00000000000000000000000000FEA1
:101350000002000200020002007E00020002000201
:10136000000200000000000000000000000000F08B
:10137000010C01040002000200C201020104010C80
:1013800001F00100000000000000000000000082E9
:10139000008200820082008200FE008200820082C1
:1013A000008200000000000000000000000000FEBD
:1013B00000100010001000100010001000100010AD
:1013C00000FE0000000000000000000000000078A7
:1013D000004000400040004000400040004000400D
:1013E000003C00000000000000000000000000823F
:1013F000004200220012000E000A00120062008269
:1014000000020100000000000000000000000002D7
:1014100000020002000200020002000200020002BC
:1014200000FE00000000000000000000000000C3FB
:1014300000C300C700A500A500AD00990099008178
:101440000081000000000000000000000000008299
:101450000086008A008A0092009200A200A200C2C8
:101460000082000000000000000000000000007882
:101470000084000201020102010201020102018452
:101480000078000000000000000000000000007E66
:101490000082008200820042003E00020002000240
:1014A00000020000000000000000000000000078C2
:1014B0000084000201020102010201020102018412
:1014C0000078004000800100000000000000003EA5
:1014D0000042004200420022001E00120022004290
:1014E000008200000000000000000000000000FC7E
:1014F000008200020006001800600080008000C228
:10150000003E00000000000000000000000000FF9E
:10151000011000100010001000100010001000104A
:101520000010000000000000000000000000008229
:1015300000820082008200820082008200820044D9
:10154000003C00000000000000000000000000015E
:101550000202010201840084004400480048003077
:10156000003000000000000000000000000000014A
:101570000201021201320132012A014A01CC00CCDF
:1015800000840000000000000000000000000001D6
:10159000020201840048003000300048008400024C
:1015A0000101020000000000000000000000000136
:1015B00002020184004400280010001000100010F6
:1015C000001000000000000000000000000000FE0D
:1015D000010001800040002000100008000400020B
:1015E00000FE010000000000000000F800080008F4
:1015F00000080008000800080008000800080008AB
:101600000008000800F800000000000200040004C8
:1016100000080008001000100020002000400040DA
:1016200000800080000001000000003E002000203B
:1016300000200020002000200020002000200020AA
:1016400000200020003E00000000002000200030AC
:101650000050005800480088008400840002010007
:10166000000000000000000000000000000000007A
:10167000000000000000000000000000000000006A
:10168000000000FF03000000001000200000000028
:10169000000000000000000000000000000000004A
:1016A000000000000000000000000000000000003A
:1016B0000000003C0040004000780044004200620E
:1016C00000DC000000000000000000020002000238
:1016D0000002007A004600820082008200820046FA
:1016E000003A0000000000000000000000000000C0
:1016F000000000F8000400020002000200020004E2
:1017000000F8000000000000000000800080008061
:10171000008000B800C4008200820082008200C401
:1017200000BC0000000000000000000000000000FD
:10173000000000780084008200FE00020002000425
:1017400000F8000000000000000000E001180008A0
:10175000000800FE01080008000800080008000852
:101760000008000000000000000000000000000071
:10177000000000B800C4008200820082008200C421
:1017800000BC00800040003C00000002000200029B
:1017900000020072008A00860082008200820082BD
:1017A0000082000000000000000000180018000087
:1017B0000000001E001000100010001000100010AB
:1017C00000100000000000000000003000300000A9
:1017D0000000003C0020002000200020002000200D
:1017E000002000200020001E000000020002000275
:1017F0000002008200620012000E000A0032004265
:1018000000820000000000000000003C00200020DA
:1018100000200020002000200020002000200020C8
:101820000020000000000000000000000000000098
:10183000000000CD0033011101110111011101114E
:101840000111010000000000000000000000000085
:1018500000000072008E00860082008200820082FA
:1018600000820000000000000000000000000000F6
:1018700000000038004400820082008200820044A0
:101880000038000000000000000000000000000020
:101890000000007A0046008200820082008200463A
:1018A000003A0002000200020000000000000000F8
:1018B000000000B800C4008200820082008200C4E0
:1018C00000BC0080008000800000000000000000DC
:1018D000000000E40094008C0004000400040004F4
:1018E00000040000000000000000000000000000F4
:1018F0000000007C00020002000C003000400042AA
:10190000003E000000000000000000000000000891
:10191000000800FE00080008000800080008000891
:1019200000F00000000000000000000000000000C7
:1019300000000042004200420042004200420062B9
:10194000005C00000000000000000000000000003B
:1019500000000001018200820042004400240028AF
:10196000001800000000000000000000000000005F
:1019700000000001021102320132014A014A01CC89
:1019800000840000000000000000000000000000D3
:10199000000000020184004800300030004800844C
:1019A0000002010000000000000000000000000034
:1019B00000000001020201020184004C00480030D6
:1019C00000300010000800070000000000000000C8
:1019D000000000FE0180004000200010000800040C
:1019E00000FE010000000000000000E000100010F8
:1019F0000010001000100010000C0010001000106B
:101A00000010001000E000000000001000100010A6
:101A10000010001000100010001000100010001046
:101A200000100010001000000000001C002000202A
:101A3000002000200020002000C000200020002006
:101A400000200020001C000000000000000000003A
:101A5000000000000000000E023102C10100000081
:101A6000000000000000000000FF03EF03E103EFAF
:101A700003EF03EF03EF03EF03EF03EF03EF03EFD6
:101A8000030103FF03FF03FF03FF03C103BD03BF04
:101A900003BF03BF03DF03DF03EF03F703FB03FD14
:101AA000038103FF03FF03FF03FF03C303BF03BF60
:101AB00003BF03BF03C703BF03BF03BF03BF03BF0E
:101AC00003C303FF03FF03FF03FF03FF03FF03FF42
:101AD00003FF037B0333038703CF03870333037BB6
:101AE00003FF03FF03FF03FF03000000000000FFEC
:101AF00003FF03030003000300030003000300FFD0
:101B000003FF03000000000000000000000000FFD1
:101B100003FF030300FB01FB01FB01FB010300FFCB
:101B200003FF03000000000000000000000000FFB1
:101B300000FF00800080030003000380038000FF9B
:101B400000FF00000000000000000000000000FF97
:101B500000FF008000BF033F033F03BF038000FF7F
:101B600000FF00000000000000FF01020304050662
:101B7000076F70717273747576FFFFFFFFFFFFFFD1
:101B8000FFFFFFFFFFFFFFFFFF10111213141516D9
:101B90001718191A1B1C1D1E1F202122232425265D
:101BA0002728292A2B2C2D2E2F303132333435364D
:101BB0003738393A3B3C3D3E3F404142434445463D
:101BC0004748494A4B4C4D4E4F505152535455562D
:101BD0005758595A5B5C5D5E5F606162636465661D
:101BE0006768696A6B6C6D6EFFFFFFFFFFFFFFFFA9
:101BF000FFFFFFFFFFFFFFFFFFFFFFFFFFFFFFFFF5
:101C0000FFFFFFFFFFFFFFFFFFFFFFFFFFFFFFFFE4
:101C1000FFFFFFFFFFFFFFFFFF0FFFFFFFFF05FFBE
:101C2000FFFFFFFFFFFFFFFFFFFFFFFFFF08FFFFBB
:101C3000FFFFFFFFFFFFFFFFFFFFFFFFFFFFFF09AA
:101C4000FFFFFFFFFF0AFFFF0BFFFFFFFF0CFFFF80
:101C5000FFFFFFFFFFFFFFFFFFFFFFFFFFFFFF0D86
:101C6000FFFFFFFFFF0EFFFFFF0011241FBECFEF9E
:101C7000D8E0DEBFCDBF11E0A0E0B1E0E6E7FEE7CF
:101C800002C005900D92AA30B107D9F722E0AAE070
:101C9000B1E001C01D92A430B207E1F70E945E2EB0
:101CA0000C94083F0C9400008093D8016093D901F4
:101CB0006150603190F441E050E0062E02C0440FC4
:101CC000551F0A94E2F72091CD013091CE01242BCB
:101CD000352B3093CE012093CD0181502AE0829F95
:101CE000C00111249093D6018093D50180E1689FB3
:101CF000B00111247093D2016093D101089598E04E
:101D000087FF07C05B9A5A9A5A98880F9150C1F77B
:101D100008955B98F8CFCF93C82F599A5D98892F73
:101D2000EEDF8C2FECDF5D9ACF910895599A5D9884
:101D3000E6DF5D9A089559985D98E1DF5D9A089510
:101D40008AE2F9DF8091D5019091D601E4DF80919C
:101D5000D3019091D401DFDF8BE2EDDF8091D101DF
:101D60009091D201D8DF8091CF019091D001D3CF53
:101D7000B0E0A0E0EEEBFEE00C94673EE82F80912F
:101D8000D801813108F04FC0F0E0E759F44EC4911A
:101D9000CF3F09F448C090E2C99FE0011124C75722
:101DA000D34F6091D90180DF8091D5019091D60108
:101DB00009969093D4018093D3018091D1019091A1
:101DC000D2010F969093D0018093CF01B9DFC090DC
:101DD000DD01D090DE018CE2AEDF7E01E2E0EE0EAE
:101DE000F11C5E01F2E2AF0EB11C87010250110935
:101DF000CAE0DC2FC93008F0D8E0CD1BF801949080
:101E0000D11116C00F5F1F4F0E151F0591F77801F6
:101E1000F2E0EF0EF11CEA14FB0439F78091D801CF
:101E20008F5F8093D801CDB7DEB7EBE00C94833E93
:101E3000C60190FC02C08FE090E06DDF9694D15017
:101E4000DFCF0F931F93CF93682FA89581E0611187
:101E500004C06091D9018091D8016131E0F49FEF15
:101E6000960F21E030E002C0220F331F9A95E2F76F
:101E70004091CD015091CE01FA01E223F323EF2BE3
:101E800029F1813041F42095309524233523309376
:101E9000CE012093CD0108DF8FE990E09093D4012B
:101EA0008093D3018091D1019091D2019C01215F57
:101EB0003F4F2038310570F43093D0012093CF018B
:101EC000C0E13EDF8CE237DFC1110DC0CF911F9121
:101ED0000F910895C0E8C81B8FE790E09093D00160
:101EE0008093CF01EECF0091D5011091D601003A39
:101EF000110510F0C150E8CF8FE090E00CDF0F5FCC
:101F00001F4FF5CFCF93C1E08C2F9BDFCF5FCA303F
:101F1000D9F761E081E0C8DECF91089590919601F4
:101F2000EEE1F1E0911104C0F0E0E0E0CF010895AE
:101F30002081281303C021812617C1F391503696C2
:101F4000F1CF16BC81E085BDA99BFECF15BC82E018
:101F500085BB0895E7EDF1E08085918597838683C1
:101F60000895E7EDF1E0868197819187808780EE83
:101F70009FEF97838683089582E063DF62E081E0CC
:101F800093CE8DE2F5CE80E2F3CE9091720189136B
:101F900003C080917501ECCE90917301891303C049
:101FA00080917601F8CF80917701F5CF8F5CE0CEFC
:101FB000CF93C82F80919A01E82FEE0FE80FE60F1C
:101FC000FF27FF1FE15BFC4FE491EE2311F18091AD
:101FD000E40181506091E501E4FF04C09091E301C8
:101FE0009695690FE1FF04C09091E2019F5F890F10
:101FF000E2FF04C09091E3019150690F55DE80919A
:102000007201C81308C080917501883771F48C2F54
:10201000BCDFCF91089580917301C81303C08091F4
:102020007601F3CF80917701F0CF8C2FBFDFF1CF16
:10203000CF93DF93EC01FE018491811103C0DF9106
:10204000CF91089595DE2196F6CF0F931F93CF93EE
:10205000DF93C7EDD1E00E811F8120EE3FEF3F837C
:102060002E83E6DF1F830E83DF91CF911F910F91A7
:102070000895DEDF88CF0F931F93CF93DF936130F6
:1020800009F43FC0623009F445C0E9E9F2E02EE10D
:1020900030E0C9E1D0E048EC50E08417950708F43F
:1020A00042C0841B950BBE010E94D63DAC2FA81BDD
:1020B0006217130609F008F49B01C9019927880FDC
:1020C000991F8E0F9F1FFC0125913491FC013296C0
:1020D00005911491201B310BA29FA001A39F500DCD
:1020E0001124CE0196958795840F951FBE010E94FD
:1020F000D63DC801860F971FDF91CF911F910F9199
:102100000895E5E3F3E027E030E0C2E3D0E048EEF5
:1021100053E0C3CFE9EDF2E02CE230E0C9E1D0E0DA
:102120004CE251E0BACF90E080E0BDCFACEAB1E044
:102130008C9311966C93119712964C93129790E092
:10214000FC01E357FD4FE4911696EC93169770E06F
:10215000FB01E357FD4FE4911796EC93179750E07E
:10216000FA01E357FD4FE4911896EC931897FC01A0
:10217000E057FD4FE4911996EC931997FB01E05756
:10218000FD4FE4911A96EC931A97FA01E057FD4F30
:10219000E4911B96EC931B97FC01ED56FD4FE491E7
:1021A0001C96EC931C97FB01ED56FD4FE4911D9698
:1021B000EC931D97FA01ED56FD4FE4911E96EC93BA
:1021C0001E978A569D4FFC0184911F968C931F97F2
:1021D0006A567D4FFB01649150966C9350974A5616
:1021E0005D4FFA01449151964C930895ECEAF1E069
:1021F0004581648183819ACF43E0461B481B96CF7B
:10220000ECE9F1E080E09191890F91E0E63AF9077D
:10221000D1F7811101C081E00895ECE9F1E088EC8B
:1022200090E0918380838CED90E09383828384E1BE
:1022300090E0958384838BE28683178210861186D3
:1022400008950F931F934091C2019C01A4E1B0E057
:102250000E94413E4630C1F4072F182F292F332703
:102260000F5F1F4F2F4F3F4F54E0000F111F221FD2
:10227000331F5A95D1F70617170728073907C0F4F7
:10228000601B710B820B930B1092B1001092B20085
:1022900022E02093B0002093700023B7217F242BED
:1022A00023BF0FB607FC33C0789440E057E01CC052
:1022B00040E0EACFA8958B019C016F3F7105810535
:1022C000910529F020F00FEF10E020E030E0601BD6
:1022D000710B820B930B01500093B3005093B1002C
:1022E0002091B10021110BC0611571058105910587
:1022F00009F7411101C0F8941F910F91089523B778
:10230000216023BF889523B72E7F23BFE9CF41E00B
:10231000CDCFB0E0A0E0EFE8F1E10C94613E4B01DD
:102320005C01342E280139011E2DAC019B01D1E046
:102330009AE0C92ED12CE12CF12C2A30310541052F
:10234000510510F5A3019201C1E08AE0C82ED12CFD
:10235000E12CF12C2A30310541055105E8F48114B6
:102360009104A104B10491F1411451046104710478
:1023700041F1432D4D0FE12EEC0EE416F4F1ED2F5B
:102380004E15D9F08FEF2AC0CA01B901A7019601F5
:102390000E94FD3DDF5FD1CFCA01B901A7019601BF
:1023A0000E94FD3DCF5FD6CFAAE0B0E0A30192012D
:1023B0000E94563E2B013C01CF5FCD17ACF3EC17CA
:1023C00094F0481459046A047B04B8F081E0841442
:1023D0009504A604B70408F080E08195CDB7DEB778
:1023E000E1E10C947D3EAAE0B0E0A50194010E94D9
:1023F000563E4B015C01EF5FE2CF81E0EFCFEF9201
:102400000F931F930091F2011091F3012091F401B9
:102410003091F501E090F10143E069E170E080E086
:1024200090E077DF91E0813009F090E0892F1F91F3
:102430000F91EF90089566DD8FEF97E09093DE01A6
:102440008093DD0185EA90E0F3DDF8940FB6F8940F
:10245000A895809160008861809360001092600070
:102460000FBE5E9883B7817F846083BF83B781602E
:1024700083BF889583B78E7F83BF089584DD809165
:10248000920182FF03C081E990E0D2CD8CE890E018
:10249000FCCF79DD8091920180FF05C08EE468DC7D
:1024A00088E890E0C5CD80E5FACFA3E0B0E0EBE5A9
:1024B000F2E10C946C3E89836A834B83CE010196D2
:1024C0007C0110E0F70101917F01002339F0812F99
:1024D0006DDD8AE34DDC802F4BDC55DD1F5F133053
:1024E00089F72396E6E00C94883E80E05FDD81E08A
:1024F0005DDD82E05BDD8DE33BDC80E046DD81E09D
:1025000044DD82E042CDB0E0A0E0E9E8F2E10C94E5
:102510006A3EEC01162F15B818B88091B801062F45
:10252000017060FFB5C09091B30194B987B987E09D
:1025300080937A0080E480937B008091BC01806C62
:1025400080937C0084E480BF0E944A2EA89510925C
:10255000800010928100109285001092840087E222
:1025600086BB9091B801612F647012FF96C098B934
:1025700084E100008150E9F78091810081608093BF
:10258000810090E080E021E046B3142F107245FDF9
:102590008BC040FFF9CF26BB019680359105A1F78E
:1025A0001092810020E226BBC0908600D090870068
:1025B0005091B3017091B201572B54B917B8E09103
:1025C0008400F0918500CE16DF0628F440FF03C09A
:1025D00041E046BB019647E940937A0040917B0079
:1025E0004F7B40937B00112309F449C0F12CE12C6F
:1025F000B0E0A0E0AC0133272227C22AD32AE42A84
:10260000F52A84E0662331F02FE4C20ED11CE11CD0
:10261000F11C83E0002309F449C08D5F90E0B0E035
:10262000A0E020E030E0A9018C159D05AE05BF05B6
:1026300030F4A7019601281B390B4A0B5B0BA4EF62
:10264000B1E00E94563E6B017C0125E0C20ED11C18
:10265000E11CF11CC701B6012AE030E040E050E087
:102660000E94FD3D288339834A835B83002301F167
:1026700084EDC81680E3D806E104F10400F180EC93
:102680008093C501812FCDB7DEB7E8E00C94863E7C
:1026900014B89091B901892B49CF80918100816054
:1026A0008093810098B96DCF13E07ACF8F5FB6CF5A
:1026B00022EFC21623E0D206E104F10400F712E093
:1026C000DECFCF93DF938F70C82FC064C0937C00A0
:1026D000DC2FD07C8091C5018D1721F00E944F2EF8
:1026E000D093C50180917A00806480937A009091A4
:1026F0007A00892F807496FDFACF20E030E0A9019E
:10270000E091C3018E17E8F0A091C601B091C70116
:10271000D03C21F0A091C801B091C9010E94563E61
:102720002AE096958795779567952A95D1F72E2F6C
:1027300030E050E040E00E94FD3DC901DF91CF91C3
:10274000089590917A00906490937A0090917A0025
:1027500096FDFCCF6091780070917900260F371FAD
:10276000411D511D843061F4211594E0390740F476
:10277000D03C31F09091C401913011F4C06CA6CFDF
:102780008F5FBECFA6E0B0E0E8ECF3E10C94673ECB
:1027900017B818B815B88FE384B980E092DF9A8330
:1027A000898381E08EDF9C838B8382E08ADF9E8336
:1027B0008D83912C42E0E42E58E2F52EDD24D39453
:1027C000AA24A394B12CE39423E0E21201C0E12CEB
:1027D0000E2D10E0892D90E00E2C02C09595879566
:1027E0000A94E2F780FDEFCFF801EA56FD4FC4905E
:1027F0008C2D67DFF801EE0FFF1F41E050E04C0F1A
:102800005D1FE40FF51F208131818217930780F44B
:10281000918380834F2D4D19550B443151052CF474
:102820005AEE5F1510F024E1F20EDD24D39409C0B6
:102830008A30910528F438E2F31202C020E5F22E26
:10284000D3948330910508F035C0C501002E01C036
:10285000880F0A94EAF7982A57E0951629F1FD1493
:1028600008F033C081E08093910180939201E0925F
:102870009701F801ED56FD4FE49187B1E095E8230B
:10288000E7B9F801E057FD4F8491F801E357FD4F98
:10289000E49104B1E82BE095E023E4B98C2D11DF3D
:1028A000909399018093980114B817B82696EBE09D
:1028B0000C94833E8039914078F6F801ED56FD4F37
:1028C0008491E7B1E82BE7B9C7CFA89582E390E000
:1028D000B8DC79CFA4E0B0E0E0E7F4E10C94623E2C
:1028E0006C011092A7011092A8011092A9011092F8
:1028F000AA011092AB010097E9F0FC016381748199
:1029000085819681E12C00ED17E020E030E04281E6
:1029100000DD87FF0FC0F601618180816DDC32DF51
:1029200080919101813041F42DDF809191018130BE
:1029300009F0C0C080E0B7C065E0CE010196E3DDDC
:10294000833009F0B4C089819A81AB81BC81893818
:102950009341A105B10540F305E0F60112818380A2
:102960009480A580B6807AE0C72ED12CE12CF12C82
:102970001F3F09F0C3C08091A0019091A10105966D
:10298000E0919C01F0919D01C0909E01D0909F012B
:10299000CE0EDF1E6AE070E00E94D63DC60ED71E46
:1029A000C80CD91C89819A81AB81BC8100FFBCC055
:1029B0000AE7C01A05EED00AEA57F54E803717E14C
:1029C0009107A105B10508F4B5C0843D9043A10568
:1029D000B10508F4B2C087E390E02091A401A09172
:1029E000C601B091C7017D01E20EF11C27FDFA94EA
:1029F0009701092E000CAA0BBB0B7C018D01E20E86
:102A0000F31E011D111DA8019701F12CE12CC70136
:102A1000B6010E94AE3D9F0150E040E00E94FD3DA6
:102A2000CA01B90125E030E040E050E00E94FD3DE0
:102A300063E0C90120DB5C0129813A814B815C8123
:102A400017EF6AE0462E512C612C712C213A06E8D2
:102A5000300701E04007510508F075C0D5010E941C
:102A6000563E2AE0822E912CA12CB12C613A26E808
:102A7000720721E08207910508F071C0A701960155
:102A80000E94AE3D1093A70120E137E240E050E004
:102A90000E94FD3D2093A8013093A9014093AA0113
:102AA0005093AB0181E02496E0E10C947E3E8111CD
:102AB00041CF3ACF61E0CE01019625DD01E08230C1
:102AC000C9F4F6016381748185819681E12C08E265
:102AD00010E020E030E042811CDC87FF2BCF52DE8B
:102AE00080919101813009F425CF62E0CE010196F9
:102AF0000ADD02E0833009F01DCF2FCF1F3F54F4D1
:102B0000C501B401A70196010E94FD3D49015A018A
:102B10001F5F2ECFAAE0B0E0A50194010E94563EAF
:102B20004B015C01115024CF8838934148F082EE6C
:102B30009FEF53CF80E590E050CF8DE290E04DCFF6
:102B400086EF9FEF4ACFCA01B9016B5F7F4F8F4F6E
:102B50009F4FA30192010E94FD3D1F5F77CF6B5FE6
:102B60007F4F8F4F9F4FA50194010E94FD3DCA01E9
:102B7000B9011F5F7BCFCF93C82FC09595B160FF80
:102B800011C0982B95B994B1982B94B963FF0CC0E0
:102B90000E944A2E84B18C2384B985B18C2385B9D7
:102BA000CF9108959C23EECF0E94452EF3CFB0E045
:102BB000A0E0EDEDF5E10C94613EB82EA62E442E7A
:102BC000512CE20144E0CC0FDD1F4A95E1F7FE01F4
:102BD000EE5BFE4F1082118284EF82831782108693
:102BE0001186128613821482158216821486138629
:102BF0001786168680919101813009F478C38A3056
:102C000069F4909095013FEEC32E31E0D32EF12C64
:102C1000F91408F451C024E6F21269C36A2D8B2D11
:102C20007DD9009739F0FC01828193818C3D9540DC
:102C300008F45DC36A2D8B2DDFDAB2E0CB2ED12CE8
:102C400081E1682E93E0792E9DDD809191018130A4
:102C500009F439C318B88091B90187B98091B301DB
:102C600085B984B98091BB012CDD7C018091BC01C8
:102C700028DDE81AF90A15B814B810E000E00F5F73
:102C80001F4F662D8091B20176DF8091BB0119DD67
:102C9000E816F9060CF0E7C25C01AE18BF080E3763
:102CA000110509F0E6C22BE4A216B1040CF0E6C24D
:102CB000A8950EE710E0E9C2F60180818B1103C0F0
:102CC00091819A1531F08A1114C0F60181818B111E
:102CD00010C0F6016381748185819681E12C0AE040
:102CE00010E020E030E0428114DB8F3F11F423E656
:102CF000F22EF394F7E0CF0ED11C8ACFCC24C394EC
:102D0000D12CA2CFA895C1C283E0781609F4B4C033
:102D1000F2E07F12D8C2D1C291E0891A9108832DC6
:102D2000D0DCE816F9060CF0A4C08E199F09A8950E
:102D30003090BB018114910479F7D12CC12C8A15F4
:102D40009B05B8F46501C81AD90A9601A8EEB3E04C
:102D50000E94413E950150E040E00E94FD3DFE0191
:102D6000EE5BFE4F37872687E5E6CE16D10408F0E6
:102D7000712C832DA6DC7C01F62DF0713F2E09F419
:102D80007FC00E943A2E8091BB019BDC8E159F056F
:102D900018F44701881A990A23E07212B9CF62E049
:102DA000C5018C0D9D1D67D99C01D8010E94413E33
:102DB0006B017C01332041F0AAE0B0E0AC019B0143
:102DC0000E94563E6B017C0117EF88E3C81689E824
:102DD000D80681E4E806F10458F0C701B60128EEF0
:102DE00033E040E050E00E94FD3D69017A011AEFB6
:102DF000A8EEB3E0A70196010E94563E22E434E01B
:102E000040E050E0311004C020E134E040E050E008
:102E10000E94FD3D8091AD01FE01EE5BFE4F80837F
:102E20008091AC0181831283C782D086E186F286CD
:102E30002383348345835683EAE0CE2ED12CE12CC4
:102E4000F12C213095E339079CE049075105D8F46E
:102E5000D4010E94563E28EE33E040E050E00E944C
:102E6000FD3D63FC1F5F7AE0C72ED12CE12CF12CD5
:102E700019C090E080E05BCF480190E080E058CF3F
:102E80000E943F2E80CFCA01B901A70196010E947E
:102E9000FD3D1F5FD6CFCA01B901A70196010E946F
:102EA000FD3D1F5F21153105E1E04E07510598F703
:102EB000FE01EE5BFE4F34872387158704C215B8E9
:102EC00097E097B918B88091B50184B980E48093F0
:102ED0007B0084E480BF8091BB01806480937C0090
:102EE00090937A000E944E2E1092800010928100E2
:102EF000109285001092840087E286BB8091B50114
:102F000085B9809191018F3109F03CC18091B80160
:102F10008095877091E09093810087B9F12CE12C26
:102F200086B385FD0CC080FFFBCF96BBA8952FEF25
:102F3000E21AF20AE0EAEE16EFE0FE0689F71092D6
:102F4000810090E296BB809086009090870014B834
:102F500020918400309185008216930638F480FF1A
:102F600005C081E086BBFFEFEF1AFF0A87E9809377
:102F70007A0080917B008F7B80937B008091BB01E6
:102F8000A0DB8C0115B88091B50184B920EAE21666
:102F90002FE0F20608F097C1C401B0E0A0E04701BD
:102FA000B12CA12C540199248824882A992AAA2A70
:102FB000BB2A83E088169104A104B10408F4E5C09B
:102FC00092E0891A9108A108B108E8E38E16E9E8B1
:102FD0009E06E1E4AE06B10408F4D7C0C501B40111
:102FE00028EE33E040E050E00E94FD3D49015A01E7
:102FF00057EFD52E2091A4018091C6019091C70171
:1030000061E0820F911D27FD9A9535D8DC01A5015D
:1030100094010E94563E20ED37E040E050E00E94CF
:10302000FD3DF4EF49015A01DF1213C08091A20166
:1030300090E0B0E0A0E0812C912C540128173907D2
:103040004A075B0730F049015A01881A990AAA0A0F
:10305000BB0A8091AD01FE01EE5BFE4F8083809143
:10306000AC018183D2822783308741875287838254
:103070009482A582B68224EFD2128AC080EA881692
:1030800086E8980681E0A806B10408F08CC037EF06
:10309000E32E02E310E020E030E04D2DC501B40145
:1030A00038D9813009F00FC11AE0E12EF12C00E08F
:1030B00010E028EFD2160CF0B4C0C501B401A8018D
:1030C00097010E94FD3D49015A01D39488EFD8121F
:1030D000F0CF58DB80919101813009F4F4C0840174
:1030E00018B88091B90187B915B88091B20184B937
:1030F0008091BB01E6DA7C018091B20185B996949A
:1031000087948114910409F096C014B815B8A89555
:1031100085E08093C3018091BB01D3DAE816F906FC
:1031200018F44C018E189F080115110509F089C08B
:103130008091BB01C6DA29E12093C301A895E81666
:10314000F90618F48C010E191F090815190508F065
:10315000BAC084E0440C551C8A95E1F7F201EE5B9D
:10316000FE4F2F019401201B310BA4EFB1E00E9410
:10317000413E940150E040E00E94FD3DF20137875E
:103180002687A1C08091B901C5CE44EFD42E32CF9D
:1031900097EFD9127CCFE1E28E16EEE49E06A104F1
:1031A000B10408F074CF8091BB018BDA853D934068
:1031B000D0F714B81092C4018091BB0182DA7C016F
:1031C00081E08093C4018091BB017BDAAC018091E6
:1031D000B50184B9D701A41BB50BE090C601F090EE
:1031E000C701CD010496099788F097010E94503ECF
:1031F0009A0150E040E00E941F3E8091A301820F9F
:103200008093A301E80CF11C87FCFA940E191F09A6
:10321000C801C1968336910508F039CF0093A40107
:1032200036CFAAE0B0E0A50194010E94563E4B01C2
:103230005C01DA944BCF0E94552E91E0891A9108D7
:1032400060CF0E94552E015011096ECF853F0CF0C2
:1032500046C08B819C81AD81BE810597A105B105DA
:1032600008F03DC03FC0B12CA12C0E37110509F468
:103270001FCD043F81E0180709F444CDA8959CE2D6
:10328000A91691E0B9060CF4FACCECE2AE16E1E036
:10329000BE0614F4772473940130110509F034CD7F
:1032A000F5E1AF16F5E0BF060CF42ECDF9E06F2E78
:1032B00021E0C216D10409F021CD64DA8091910198
:1032C000813009F0FCCD90919101943158F4CE5B9E
:1032D000DE4F8A819A3009F0B9CF8A3F1CF08BE02B
:1032E000809391014FDA17B818B814B815B8CDB754
:1032F000DEB7E1E10C947D3EA4E0B0E0E2E8F9E164
:103300000C94603E9C838B83892B51F42FEF3FEF0D
:103310003C832B838B819C812496E2E10C947C3E40
:10332000EB81FC816381748185819681A7EFEA2E10
:103330000AE010E020E030E042810E94891187FD20
:10334000E5CF20DA80919101813001F3EB81FC819E
:103350001181008117B818B814B815B8612F802FE3
:103360000E94FC108091B80187B98091BC01A9D955
:103370007C018091B90187B98091BB01A2D9E8167F
:10338000F90620F4602F812F0E94FC108091B80173
:1033900087B98091B30184B912E38091BC0191D9BE
:1033A0009C018039914040F497B18091B901982BEC
:1033B00097B92832310538F0115029F084E690E0B1
:1033C0000E942111EACF17B814B8EB81FC8161810A
:1033D00080810E94FC100091BB018091BC01006CB7
:1033E000806C8A8315BC82E084BD85E387BD18B8F4
:1033F00000937C000E94452EFFEFF983812C912CD5
:1034000054018394412C512C3201439452E3C52E34
:10341000D12C90E080E017EDA895C29758F48091E8
:10342000B90187B98091B20185B984B90E94582E3B
:1034300014B815B822E3C216D10458F48091B8012B
:1034400087B98091B30185B984B90E94582E14B808
:1034500015B88091B80187B98091B20185B984B956
:1034600000937C0010937A0080917A0086FDFCCF57
:1034700010937A0080917A0086FDFCCF209078002E
:10348000309079003A8130937C0010937A008091DB
:103490007A0086FDFCCF10937A000E94542E0E9481
:1034A000A10F8091B30185B984B90E94582E14B838
:1034B00080917A0086FDFCCFC0907800D090790092
:1034C0008091B90187B98091B30185B984B96A81C6
:1034D00060937C0010937A0080917A0086FDFCCF87
:1034E00010937A0080917A0086FDFCCFE0907800FE
:1034F000F090790000937C0010937A0080917A001C
:1035000086FDFCCF10937A000E94542E0E94A10FDA
:103510008091B20185B984B90E94582E14B8809167
:103520007A0086FDFCCF8091780090917900A70108
:1035300070E060E0420D531D611D711D440E551E6B
:10354000661E771EAC0170E060E04C0D5D1D611DD4
:10355000711D840E951EA61EB71E79817150798348
:1035600071115ACF17B815B8481459046A047B046E
:1035700008F046C080919C0190919D012AE0289F0F
:10358000D001299FB00D1124A501940124193509FA
:10359000460957090E94563EA30192010E94FD3D33
:1035A0008091A0019091A1018217930750F4F90135
:1035B000E81BF90BFC83EB8380EC8093C501E2D818
:1035C000A9CEEB81FC8163817481858196812AEF8C
:1035D000E22E08EE13E020E030E042810E948911E3
:1035E00021E030E03C832B83181614F41C821B82EC
:1035F0006B817C817195619571097C836B83DCCFD4
:103600008FEF9FEF9C838B83D7CFB0E0A0E0EBE000
:10361000FBE10C94623E182FB5D880919101813066
:1036200009F4A5C018B88091B90187B98091B20199
:1036300085B984B90E94452EC2E0D0E0C12CD12CBE
:1036400076018091BB01A895806C80937C000E94DC
:103650004F2E80917A00806480937A0080917A0066
:1036600086FDFCCF04E6812C912C540180917A00D8
:10367000806480937A0080917A0086FDFCCF8091EF
:10368000780090917900880E991EA11CB11C0E94AF
:103690004C2E015059F7A091C601B091C701A50168
:1036A00094010E94563E4B015C018AE0B694A794B7
:1036B000979487948A95D1F7219779F415B88091DA
:1036C000B9019091B801892B87B98C149D04AE047F
:1036D000BF0450F090E080E042C0C1E0D0E075014E
:1036E00064018091BC01AFCF2091C8013091C90124
:1036F000A4E6B0E00E94413E9B01AC012C193D09BB
:103700004E095F090E94563E2B013C01A70196011C
:10371000281939094A095B09A8EEB3E00E94563E10
:103720006B017C0120919E0130919F012A57354EFB
:1037300050E040E0C301B2010E94FD3DC701B60167
:103740000E94FD3DC901113051F46091A0017091BA
:10375000A1016217730708F0BDCF861B970B20EC01
:103760002093C501CDB7DEB7E0E10C947E3E90E03A
:1037700080E0F8CFB0E0A0E0E0ECFBE10C94663E26
:103780006B017C01C42F022F9AE0892E912CA12C71
:10379000B12C80E1C81687E2D806E104F10408F0F4
:1037A00054C0C13F0CF45FC08FE08C0F23E0622F48
:1037B0000E94C93DD92F992319F08F5F291BD22F61
:1037C000883008F051C0E82FF0E0E95BFC4F14911D
:1037D0004AE062E171E0C6010E94B83E22E131E0B8
:1037E000F90101900020E9F79F0123513140B22EE9
:1037F000C22FCD1B1C165CF080E30E94B80E8EE237
:103800000E94B80ECC2319F080E30E94B80ED111AB
:1038100001C0CFEFC15082E1C82E81E0D82EF12C3B
:10382000E12C0C2E000CDD0BEB1400F1112319F030
:10383000812F0E94B80E002319F0802F0E94B80E2D
:10384000CDB7DEB7ECE00C94823EC701B6016B5FEA
:103850007F4F8F4F9F4FA50194010E94FD3D69014D
:103860007A01CF5F96CFD0E010E0B2CFF601819120
:103870006F010E94B80ECE15DF0519F48EE20E948A
:10388000B80EFFEFEF1AFF0ACFCFCF93DF93EC0113
:1038900088810E94D60F85E89CE00E9418108981DB
:1038A0000E94D60F0E94C30F6A817B8190E080E066
:1038B00026E54DEF5FDFDF91CF910895CF92DF9244
:1038C000EF92FF92CF93DF936B017C01C42FD22F35
:1038D000F7FE0AC00E94C10FF094E094D094C09407
:1038E000C11CD11CE11CF11C2D2F4C2FC701B601AE
:1038F00041DFDF91CF91FF90EF90DF90CF9008955F
:1039000020E040E037CF1F93CF93DF93C091CA01EF
:10391000D091CB01C03787E1D80718F580E098EF48
:103920009093DE018093DD011EE08CE00E94B80ED2
:10393000812F0E94B80E0E94C30F8FEF9FEF9093CC
:10394000DE018093DD01CE016AE070E00E94D63D89
:1039500090E080E026E54EEF0DDFDF91CF911F91E3
:103960000895C8358BE1D80748F480EE9FEF909317
:10397000DE018093DD011EE08DE0D8CF80EE97E080
:103980009093DE018093DD011FE0F6CF85E00E9479
:1039900061139C01AEEBBFE00E94413E28EE33E094
:1039A00040E050E00E94FD3D2C503E4F3093CB0153
:1039B0002093CA0184E68093CC012037374178F404
:1039C0008FEF9FEF9093DE018093DD010E94820FC5
:1039D0009ADF88EB9BE00E9421110C941B12089542
:1039E00040E0FC0160818181E2D8E2E4F1E06381A2
:1039F00074818581968126E44281BCCECF93C62F07
:103A00000E94B80E8DE091E00E9418108C2F0E9449
:103A1000B80E0E94C30FEFEEF1E0638174818581DF
:103A2000968124E04281A6DECF910895CF93C82FDE
:103A30000E94462E8C2F0E946113CF910895B0E012
:103A4000A0E0E5E2FDE10C94623EA8950E94C2135D
:103A500080919101813009F48FC018B88091B9012B
:103A600087B98091BB010E9461132C018091B5013F
:103A700084B985B961E18091B4017DD88091BB01A1
:103A8000D5DF3C018091B20184B985B961E18091B3
:103A9000B40171D88091BB01C9DF5C018091BC0188
:103AA0000E9461137C010E94C213809191018130B8
:103AB00009F462C018B88091B90187B98091BB013F
:103AC0000E9461138C0117B88091B80188B987B939
:103AD00015B88091B60184B960E18091B4014BD8EA
:103AE0008091BB01A3DFEC018091BC010E946113B6
:103AF000C817D90708F445C0C81BD90B6501CE18F3
:103B0000DF088091B30184B960E18091B40133D8BA
:103B10008091BB018BDF4C018091BC010E9461133D
:103B20009401281B390B17B82C153D0568F5760153
:103B3000E80EF91EE818F9088201E30129EEE21601
:103B400023E0F206C8F4C630D105B0F00C171D070B
:103B500008F50330110538F0CE01801B910B8C0164
:103B60000436110548F0C832D105B8F0C6018759AE
:103B7000910989389141D0F1CDB7DEB7E0E10C94DD
:103B80007E3ED0E0C0E0BACFEA18FB08E20EF31E9A
:103B90006901D4CF0C1B1D0BE3CF15B88091B30185
:103BA00084B98091B80188B987B98091BC013EDFA2
:103BB0008C018091B20184B98091B90188B987B92B
:103BC0008091BB0133DF9C01C80164E170E00E9479
:103BD000D63DC801861B970B8217930738F6060F50
:103BE000171F2017310708F0C1CFC6CF8091910170
:103BF000882311F08A3019F484E180939101809137
:103C0000960196E0899FF0011124E25EFE4F9091AB
:103C1000AC0190839091AD019183D382C282D58310
:103C2000C4838F5F80939601A7CFCF92DF92EF92EC
:103C3000FF92CF93C82F15B88091B30184B98091BA
:103C4000B80187B988B98091BC01F0DE8430910554
:103C5000F0F1C0909C01D0909D01F12CE12C8937AE
:103C600025E0920768F1C13059F514B88091B80188
:103C70009091B901892B87B98091BC010E94611391
:103C800020EA36E841E050E0C9EF17B818B814B898
:103C900015B8DC010E94563EA70196010E94FD3D29
:103CA00020938701309388014093890150938A01C2
:103CB000C0938B01CF91FF90EF90DF90CF9008954C
:103CC00026E8C20E2AE1D21EE11CF11CD9CF809158
:103CD000B60184B98091BC01A9DE2DE8C22E2DE287
:103CE000D22E27E0E22EF12C20E432E44FE050E027
:103CF000C7EFCBCFA1E1B0E0E0E8FEE10C94623E7B
:103D0000898B8B018091AC018093AF018091AD01D3
:103D10008093B0018091AE018093B1018091B70191
:103D20002989213009F0CDC19091B201892B84B944
:103D300085B90E94412EE090C801F090C9018091A0
:103D4000BB010E946113E81AF90AC090C801D09023
:103D5000C9018091BD010E946113F601E81BF90BB6
:103D6000C701B0E0A0E08D839E83AF83B887C09089
:103D70009E01D0909F0191E0998788E49DE02DEF0E
:103D800039E02E173F0708F040C2809191018E3133
:103D900009F0BDC18091920199899823846099238B
:103DA00061F05989513059F4909173018091AC01BF
:103DB000981305C05093910182E080939201809105
:103DC00093018160809393010E151F0510F4E01A92
:103DD000F10AD7012DE83DE247E050E00E94563E4F
:103DE0009F0150E040E00E94FD3DAAE0B0E00E944B
:103DF000563EAAE7CA1AA5EEDA0AF12CE12CA70171
:103E000096010E94FD3D29873A874B875C879091F8
:103E1000B401B989B13009F081C18091B80187B985
:103E200088B98091B301892B84B995B98091BC017F
:103E3000FDDD5C010091C8011091C9018091BD01B7
:103E40000E946113081B190B2501712C612CE09154
:103E50009C01F0919D010115110511F401E010E0A4
:103E6000C501801B910BB8010E94D63D9B0150E01B
:103E700040E029833A834B835C83A0E1B7E2A3014E
:103E800092010E94563EEA57F54E9F0150E040E0F5
:103E90000E941F3E30937C0120937B01003111056D
:103EA00008F062C08091B7013989313009F05DC1F5
:103EB0009091B301982B94B985B98091BC01B6DD7E
:103EC0005C010091C8011091C9018091BD010E945F
:103ED0006113081B190B2501712C612C80909C012A
:103EE00090909D010115110511F401E010E0D5013C
:103EF0002DE83DE247E050E00E94563E980150E038
:103F000040E00E94FD3DAAE0B0E00E94563E4AE734
:103F1000841A45EE940AB12CA12CA50194010E94AB
:103F2000FD3D2D873E874F87588B89819A81AB81D4
:103F3000BC8182179307A407B507B0F4A0E1B7E2EC
:103F4000A30192010E94563EA50194010E941F3ECA
:103F500030937C0120937B012D853E854F855889C8
:103F600029833A834B835C8389859A85AB85BC859D
:103F700029813A814B815C8182179307A407B50799
:103F800008F415C1A0E1B7E22D813E814F8158852B
:103F90000E94563EA70196010E941F3E49015A0108
:103FA00089859A85AB85BC8589839A83AB83BC83DD
:103FB00091E09D8380917F0190918001A09181018A
:103FC000B091820129813A814B815C8182179307EC
:103FD000A407B50708F0F6C080938301909384018D
:103FE000A0938501B093860111E08091AE0199897B
:103FF00040E06091AC01913019F4682F8091AD01DF
:104000000E94D7150E94F6108091920182FFE8C0AD
:1040100000914501109146012091470130914801DE
:1040200060918C0170918D0180918E0190918F0132
:10403000E0904401409190010E948911813009F47F
:10404000D1C0898984608093920180E0EEDD29816E
:104050003A814B815C8120937F01309380014093B2
:104060008101509382013D813093780190927E01CD
:1040700080927D018091450190914601A091470178
:10408000B091480180938C0190938D01A0938E0193
:10409000B0938F0180914401809390018091AE0193
:1040A000809372014989413009F0A0C08091AC0130
:1040B000809373018091AD018093740110929A01F5
:1040C00091C09091B301892B84B98091BC01AEDC81
:1040D0007C018091BD010E946113FC01C701B0E029
:1040E000A0E022273327A901281B390B4A0B5B0BC1
:1040F0002D833E834F835887C0909C01D0909D01B3
:1041000080ED97E021ED33E042E049873ACE8EE141
:104110008093910189898093920156CE18B880913D
:10412000B90187B98091B20185B9892B84B9A09072
:10413000C801B090C9018091BB0178DCA81AB90A06
:104140008091BD010E9461138C012501712C612CAD
:104150007094609450944094411C511C611C711CDB
:10416000E0919E01F0919F0176CE9091B201892B52
:1041700084B9A090C801B090C9018091BB0156DC00
:10418000A81AB90A8091BD010E9461138C01250112
:10419000712C612C7094609450944094411C511C7B
:1041A000611C711C80909E0190909F019BCE80901D
:1041B0007B0190907C01092C000CAA08BB08A2E0AE
:1041C000AD83F8CE89819A81AB81BC8180938301D4
:1041D00090938401A0938501B093860110E005CFF0
:1041E000111133CF6196E0E10C947E3E8091AC01D9
:1041F0009091AD0198278927982790937401809317
:10420000730181E080939A01EDCF0136110550F7DB
:104210008E159F0538F78091BB010E9461138C01B8
:104220008091BC010E946113081B190B0A3F110504
:1042300008F0D4C02FE120939101298524612093B7
:1042400092015985513009F0BEC0A0919E01B091F4
:104250009F01AA57B54E22E020939A014AE0409F61
:104260009001419F300D11240E94413E970150E082
:1042700040E00E94FD3D8091A0019091A101821734
:10428000930708F0A8C0281B390B30937A012093BC
:10429000790199859170992EA985A0FFAFC00091F1
:1042A000B201B091B801B98320E1822E3981377013
:1042B00039838091BD01806480937C000E944F2EE1
:1042C0001AE0C12CD12C7601AA24AA9483E0B82E3E
:1042D000A895682D8091B4010E94BB158091B7010B
:1042E000802B84B9992009F491C086B14981842337
:1042F000E1F704B980917A00806480937A0080911C
:104300007A0086FDFCCF8091780090917900992009
:1043100009F481C0C80ED91EE11CF11C1150C1F670
:10432000C701B6012AE030E040E050E00E941F3EA5
:10433000A091C801B091C9010E94563E20E034E02E
:1043400040E050E00E941F3E30937C0120937B01AF
:1043500080E48093C50180919301816080939301F3
:104360008091AE01809372012091AC013091AD013A
:104370003227232732279091AD014091AC01B985B6
:10438000B13009F050C0409373019093740140E044
:10439000609174010E94D71580914501909146016A
:1043A000A0914701B091480180938C0190938D01B9
:1043B000A0938E01B0938F0180914401809390016E
:1043C0000E94F6100FCFA0919C01B0919D01AA57B9
:1043D000B54E23E041CF30E020E057CF80E280931C
:1043E000910189858460809392018985813021F4CF
:1043F00088E080939A014DCF89E0FBCF0091B30113
:104400002091B901298391E1892E50CF86B159813C
:104410008523E1F36ECFD501A81BB90BCA1ADB0ABD
:10442000E108F1087BCF3093740120937301AFCF83
:10443000A8E0B0E0EEE1F2E20C94603EA89518B876
:104440008091B90187B98091B20184B985B9809111
:10445000BC01ECDA4C018091BB010E9461139B838B
:104460008A8315B88091B50184B98091BB01DEDAE9
:10447000459740F58091B50185B98091BB01D6DAA9
:104480006C018091B80187B988B915B88091B301E2
:1044900084B98091BB01CADA2C018091BC010E94D1
:1044A00061135C018091B60184B98091BC01BEDAD0
:1044B0003C012A813B812033314140F452E6C5164C
:1044C000D10448F02896E2E10C947C3E6CE6C616D6
:1044D00063E1D606B8F789EAA816B10408F071C0FE
:1044E00096E26916710470F3D6012DE83DE247E0CB
:1044F00050E00E94563EA091C801B091C901BB8313
:10450000AA839D012C193D0950E040E00E94FD3D29
:1045100049015A01AA81BB81A619B7092DE83DE2DC
:1045200047E050E00E94563E930150E040E00E9478
:10453000FD3DBEEDCB16B3E0DB0638F5F2E0880CAE
:10454000991CAA1CBB1CFA95D1F7CA01B901680DC8
:10455000791D8A1D9B1D25E030E040E050E00E945F
:10456000FD3D225A3E4F4F4F5F4FAAE0B0E00E9400
:10457000563E4B015C01B4E68B169104A104B104D4
:1045800008F4AFC02FEF2F83D8C0EEED6E16E3E036
:104590007E0670F4E2E0220F331F441F551FEA9598
:1045A000D1F7C501B401620F731F841F951FD3CFCC
:1045B000280D391D4A1D5B1D569547953795279542
:1045C000D0CF2A813B812815390508F47FC04A14D1
:1045D0005B0408F47BC04091C8015091C9014217A7
:1045E000530721F4215031093B832A8320919E01F6
:1045F00030919F012A57354EAA81BB81A819B9096C
:104600000E94413EAA81BB814A1B5B0B9A0150E08C
:1046100040E00E94FD3D69017A0120919C013091AA
:104620009D012A57354ED201AA19BB090E94413E6D
:10463000950150E040E00E94FD3DEA81FB81EE3DA6
:10464000F340B0F462E0CC0CDD1CEE1CFF1C6A955C
:10465000D1F7CA01B9016C0D7D1D8E1D9F1D25E08E
:1046600030E040E050E00E94FD3D49015A0183CF17
:104670008EEDA81683E0B806F0F4283F94E23907DF
:1046800091E04907510550F4CA01B90142E0660FB3
:10469000771F881F991F4A95D1F7DDCFA9E0B0E0B9
:1046A0000E94563E6C0D7D1D8E1D9F1D2AE030E040
:1046B00040E050E0D8CFC20ED31EE41EF51E4601E6
:1046C0005701B694A7949794879455CFAFE8AA164C
:1046D000A2E1BA0608F45CC02AE0822E912CA12C3B
:1046E000B12C81E00E94051B6C01F12CE12CA5018D
:1046F0009401220F331F441F551FE5E08E169104CD
:10470000A104B10420F4280D391D4A1D5B1DAAE047
:10471000B0E00E94563E611571058105910521F4B6
:1047200064E670E080E090E0C616D706E806F90679
:1047300098F546015701FEEFFF83409195014887A8
:104740005091AC0159833090AD01609191016E831D
:1047500020E0A8852A1718F1BE81B0939101243674
:1047600009F4B0CEA33008F0ADCE27E0A29FF0014F
:104770001124E151FE4F308239813183838294824A
:10478000A582B6824F814283AF5FA09395019ACEF6
:10479000812C912C5401A5CF3FEF3F83CECFC22E69
:1047A000D12CA7E0AC9DC001AD9D900D1124FC0162
:1047B000E151FE4F3F018081F9818F1391C0D301F8
:1047C00011968C9183118CC0E12C02E010E020E066
:1047D00030E04F81C501B4010E9489118F3F09F07B
:1047E00074C0F301F280238044805580768002E01B
:1047F00010E020E030E04F2D622D742D852D972D97
:104800000E948911682EFFEF8F1320C02F812F1176
:1048100002C066246394EF80950184014F2D622DC0
:10482000742D852D972D0E948911861509F447C096
:1048300037E03C9DF0013D9DF00D1124E151FE4F0C
:1048400083829482A582B6824F81428324013501FE
:10485000769467945794479457E05C9DF0015D9D72
:10486000F00D1124E151FE4FF28083819481A581E6
:10487000B6818A839B83AC83BD83EF8095018401DD
:1048800004191509260937094F2DBC01CD010E94D5
:10489000891187FD27C095018401040D151D261D72
:1048A000371DEF804F2D6A817B818C819D810E9415
:1048B00089111816BCF09AE09E8324E64ACFFF8245
:1048C000822C942CA52CB72CC1CFC501B40124E1B6
:1048D00030E040E050E00E94FD3D29013A01BCCFAC
:1048E0002F5F37CF28EC35CFCF93DF930E94FC109A
:1048F00017B88091B20185B99091B301892B84B921
:104900008091BB0193D8EC018091BC010E9461139E
:10491000AC012091C8013091C90136952795C90194
:104920004E978C179D0760F4225E3F4FC217D30746
:1049300038F48417950720F481E04217530708F0F4
:1049400080E014B8DF91CF910895CF9361E080E0CB
:10495000CBDFC82F62E080E0C7DFC80F62E081E0F4
:10496000C3DF8C0FCF910895CF93C82F0E94442EA0
:104970008C2F0E946113CF910895B0E0A0E0E3EC8A
:10498000F4E20C94663E90919101913009F4B2C327
:10499000A8950E94961015B88091B30184B98091B2
:1049A000B80187B988B960E18091B4010E94BB1554
:1049B0008091BC013BD88C018091B3019091B401EE
:1049C000892B84B98091BC0131D82091B30124B9DD
:1049D0008017910720F48530910508F43BC1013D13
:1049E00023E01207F0F061E18091B4010E94BB1551
:1049F0008091BC011BD88C018091B40185B9909144
:104A0000B301892B84B98091BC0110D815B82091CD
:104A1000B30124B98017910720F48530910508F47B
:104A200019C10031110508F017C18091930181115E
:104A300056C38091B30184B915B88091B80187B984
:104A400088B90E94462E8091B3019091B401892BC0
:104A500084B98091BC010E94161D8F359D4018F0CD
:104A6000B80182E047D980919301811138C38091C8
:104A7000B90187B918B88091B2019091B401892B1E
:104A800084B985B98091BB010E94161D803496407F
:104A900008F065C08091BD010E946113EC01809116
:104AA000BC010E9461137C0160E18091B4010E940D
:104AB000BB158091BB010E94161D6C0115B80E94A8
:104AC000462E8091B20185B98091BB010E94161DCE
:104AD00040E4C41646E0D40608F0F5C281339141A3
:104AE00008F4F1C214B815B88091B90188B90E94D0
:104AF000462E8091B20184B98091BB010E94161D9F
:104B0000853F910508F0DFC260E18091B4010E9409
:104B1000BB158091BB010E94161D6C018D3D92401A
:104B200008F0A2C282E2809391018091930181609A
:104B3000809393018AE080939A018091AE018093E3
:104B400072018091AC01809373018091AD018093DB
:104B50007401CE19DF09D0937A01C0937901809155
:104B6000930190919501892B09F0B9C261DC809184
:104B70009501813009F0B3C2C091F1018090F2013A
:104B80009090F301A090F401B090F501E12C08EBB6
:104B90001BE020E030E04C2FC501B4010E948911D8
:104BA000813009F09AC208E91AE320E030E04C2F86
:104BB000C501B4010E9489118F3F09F08EC2109285
:104BC000950115B88091B40184B98091B80188B974
:104BD00087B98091BD010E94161D0F9708F07FC212
:104BE0008091B30184B98091BC010E94161DEC0133
:104BF0008091B40185B99091B301892B84B98091DA
:104C0000BC010E94161DC817D90708F068C29C0194
:104C10002C1B3D0B293E334008F461C220919401C6
:104C2000243209F46CC224E2209394012DE02093F5
:104C30009B012091AE0120930B012091AC012093A8
:104C40000C012091AD0120930D0190930F018093F1
:104C50000E0145C28C01E9CE809193018111A0C162
:104C600028E2C22ED12C0B3E31E0130720F098EE43
:104C7000C92EDD24D3948091B3019091B701892B83
:104C800084B98091BC0170DE7C018091B70185B947
:104C90008091BC0169DEEC01CE19DF0997012C0D72
:104CA0003D1D2817390708F085C08091B40184B9EB
:104CB00085B918B88091B90187B98091BD0154DEDA
:104CC00017B8C397BB24B3948938924028F086E084
:104CD000E816F10408F0B12C8091B80187B98091F1
:104CE000BD0142DE7C018091BB010E94611317B8B7
:104CF0008E159F0548F4E81AF90A92ECE91691E03E
:104D0000F90610F4BB24B3948091B90188B987B92E
:104D10008091B2019091B701892B84B915B8809127
:104D2000BB0122DE7C018091B70185B98091BB0176
:104D30001BDE8E199F097C0118B88091B90187B9D3
:104D40008091B2019091B701892B84B985B9809186
:104D5000BD010ADE88349F4030F189E180939201E1
:104D600084E080939A018FE1809391018091930177
:104D70008160809393014091AE01409372018091D4
:104D8000AC019091AD019827892798273091AD010A
:104D90002091AC01EC16FD0608F482C090937401DA
:104DA0008093730181C0B11005C089E280939201A4
:104DB00086E0D7CF18B88091B90187B98091B20148
:104DC0009091B701892B84B985B98091BB01CCDD65
:104DD000EC018091B20185B98091BB01C5DD4C0128
:104DE000C601880D991D8C179D0708F0D9C0E09069
:104DF000C801F090C9018091B40184B915B88091BF
:104E0000B80187B988B98091BD01AEDD18B88D5C55
:104E10009041BB24B3948938924048F04CE0E41AA6
:104E2000F108BB24B394CE15DF0508F4B12CC819E2
:104E3000D9098091B80187B98091B3019091B701E8
:104E4000892B84B985B98091BC018EDD7C0180916C
:104E5000B30185B98091BC0187DDE81AF90AD694BF
:104E6000C794EC14FD0428F49C2F8D2FE701E92E44
:104E7000F82E15B88091B80188B987B98091BD0125
:104E800073DD813D934028F48AE18093920185E0AF
:104E900068CFB11085C08AE28093920187E061CF2C
:104EA0002093730130937401CE0162E370E00E949D
:104EB000D63DCE01861B970BE816F90650F06C0F15
:104EC0007D1F6E157F0528F080919201806480938C
:104ED000920160917401809173010E9496108091FB
:104EE000B9019091BA01892B87B99091B20194B917
:104EF0002091920120FFA6C018B895B9C091C801B1
:104F0000D091C9018091BB012FDD9E01281B390B77
:104F1000C90140919E0150919F014A57554E9C01F5
:104F2000A0E1B7E20E94413E9A0150E040E00E94B9
:104F3000FD3D209387013093880140938901509370
:104F40008A018AEF80938B018091B6019091B7011D
:104F5000892B84B99091B80197B92091920120FFD3
:104F60007BC015B898B991D68091BC010E9461139D
:104F7000EC018091BD010E9461138C1B9D0B9093ED
:104F80007E0180937D012091920120FF68C08054B2
:104F90009D4E813C924120F010927E0110927D0145
:104FA00080919301013D93E0190708F43ECD8111F2
:104FB00046C08091BB010E946113EC018091BC014D
:104FC0000E9461137C018091BD010E9461138C01DC
:104FD00017B88091B80188B98091B70185B99091CF
:104FE000B301892B84B982E390E00E942111809162
:104FF000B80187B98091BC010E9461130A97F8F447
:1050000083E2809394018CE080939B018091AE01B8
:1050100080930B018091AC0180930C018091AD01D4
:1050200080930D01CE018E199F0990930F018093FB
:105030000E01C01BD10BD0931101C09310010E942F
:105040001F1D4DC088B915B88091BB018DDC409102
:105050009C0150919D0161CF85B918B884CF813CE6
:10506000924108F099CF9CCF8091B20185B90ED6BC
:1050700015B88091BB010E94161D853F910518F55A
:1050800080919101813229F4809193018160809314
:10509000930181E2809391018BE080939A0180914A
:1050A0007F01909180018C159D0508F058CDC601B7
:1050B000B0E0A0E080937F0190938001A0938101F4
:1050C000B09382013ACD80919101813209F447CDAC
:1050D000B80181E00E947A1E42CD10929501809124
:1050E0009101882311F08A30B9F4A2D917B818B801
:1050F00014B815B8CDB7DEB7ECE00C94823E209121
:10510000930122602093930120910E0130910F01B1
:105110008217930720F387CD8F3141F79091920149
:1051200094FFE4CF609173018091740190FF03C0FC
:10513000962F682F892F0E948E0F892BB9F210921B
:10514000910110929201809193018E7F809393013F
:10515000CDCFA5E0B0E0EFEAF8E20C94603E6C0140
:10516000162F81E08093EA011092EB018093E70112
:105170008091C10158E7E52EF12C85FD02C0F12C8C
:10518000E12C12FF05C08091C00180FD71C01C7F21
:105190008090DD019090DE0180EE9FEF9093DE0124
:1051A0008093DD01212F2072622E9091ED01E92F75
:1051B000F091EE0115FD60C0812F8370282E39F02B
:1051C00068E080E10E94540E8EE30E94B80E92E0E7
:1051D0009983712C32E3532E1D8221E02C8300E051
:1051E000812F82708A83912F90719B8344244394F2
:1051F00042E7A42EB12CC114D10441F023E0C21621
:10520000D10408F453C082E0C81AD1084F995DC098
:105210008EE190E00E9421111D822C81211148C055
:10522000912F98709C8301E013FF3CC182E390E0D2
:105230000E94211184E18C8301E04F990DC08EE121
:1052400090E00E9421114F9907C088EC90E00E94E5
:10525000211191E09C8303E02C8121502C838AE072
:1052600090E00E9421118C818111E7CF1D821AC12B
:10527000D12CC12C8DCF31968E2F891B649061105B
:10528000FACF81509091DA01891708F095CF692EF5
:10529000681A1C7F6091DB01862D0E94540E80915C
:1052A000ED019091EE010E94181086CF1C82AECFC6
:1052B0004F99B6CF9D819F5F9D839B3109F4F0C0CC
:1052C0008AE090E00E942111A8CF3AB08AB1857F90
:1052D0008AB9E1D499B1892F887093FD82E091FD5C
:1052E00081603AB89091EA01913031F48093E901FC
:1052F0001092EA011092EC019091EC012FEF290F2E
:10530000293F18F49F5F9093EC019091E9018093FD
:10531000E901891709F453C0282F292720FF269572
:10532000213009F04AC0990F950102C035952795A3
:105330009A95E2F723708217F1F185E09091EB01E5
:105340009F5F9093EB019091EA01981721F04092B2
:10535000EB014092EC018093EA019091EB019430D3
:1053600070F11092EB01772009F464C0801709F402
:1053700062C09092DE018092DD01222039F068E067
:1053800080E10E94540E80E20E94B80E662041F037
:105390006091DB01862D0E94540E80E00E94210F57
:1053A0000093E601073611F40E941B12802F259608
:1053B000E2E10C947C3E84E0C1CF4092EA01772088
:1053C00021F08091EC018515A0F682E090E00E942A
:1053D00021118D818F5F8D8368E20E94BD3D911107
:1053E00008C08091CC01823008F44BC0815080937A
:1053F000CC012D81283C09F055C08A81882369F0B1
:105400009C8168E080E1913009F042C00E94540E16
:1054100080E20E94B80E22E02C83E114F10409F42A
:1054200025CF91E0E916F10409F446C021E0E21A23
:10543000F1081CCF082F73948091EC01672D0E9416
:10544000BD3D9CE0590E580E24E1829FC0011124FD
:1054500024E0969587952A95E1F7282F893278F4EC
:10546000869586958695283110F493E09983298155
:105470002711A5CF97E0981B9093E7017ACF85E09D
:10548000F6CF9B81992309F4B4CF0E94C61CB1CFFB
:105490000E94540E8EE30E94B80E81E08C83BDCF33
:1054A0001C8202E08091C10180FF0AC08091C1018D
:1054B0008E7F8093C1015DCF1D821C8207E6F2CFF3
:1054C0008C81811198CE55CFCF93C82F0E94BC0FED
:1054D0008C2F90E0DC01A050BF4FFC01ED5FFE4F30
:1054E0008A5F9E4F4C916081FC0180810E94551221
:1054F00060E188E893E12DDE0E94BC0FCF91089512
:10550000CF936091D9018091DB0186131CC0C091BB
:10551000D701C0FF04C065E188EB9BE01ADEC1FF44
:105520000EC0C091DB01C23028F462E081E00E942D
:10553000540E07C08C2F0E94210FC150F4CF0E943F
:10554000820FCF9108956F5FF1CFB0E0A0E0EBEA5A
:10555000FAE20C94643E2091E3013091DB0191E08A
:10556000920F391708F480C09091DA01903120F041
:10557000280F231708F47DC03093D901C1DF93E0D1
:1055800082E09093E4018093E5016090D90160E0AE
:10559000809172010E94D80F61E0809173010E9496
:1055A000D80F62E0809174010E94D80FE090DD0175
:1055B000F090DE0180EE9FEF9093DE018093DD019D
:1055C0006091E5018091E4010E94540EC0919A011E
:1055D00080E8C89FE0011124CB57DC4F6091D901CE
:1055E0008091D8010E94540E8091D5019091D601EE
:1055F0004D969093D4018093D3018091D1019091E5
:10560000D2014F969093D0018093CF010E94A00EBB
:10561000C090DD01D090DE018CE20E949B0E5E0105
:10562000E0E8AE0EB11C0EE14E01F4E08F0E911CCD
:10563000102F093008F018E0011BFE0174901111C1
:105640001CC02196C815D90599F7AC16BD0659F7A7
:105650006091E5016F5F81E00E94540EF092DE01DF
:10566000E092DD016092D901CDB7DEB7EEE00C9497
:10567000803E2091E201921B84CFC60170FC02C0E3
:105680008FE090E00E948B0E11507694D8CFCF938C
:10569000DF93EC0135DFCE010E9418100E94C30F8A
:1056A000DF91CF910895EF920F931F93CF93DF93E4
:1056B000EC0160918701709188018091890190913E
:1056C0008A0127EFE22E0AE010E020E030E040916E
:1056D0008B010E94891187FD0FC0CE01D8DF609138
:1056E0008701709188018091890190918A0121E45C
:1056F00040918B010E94BA1BDF91CF911F910F91B6
:10570000EF900895CF93DF93EC01FADECE010E9473
:105710001810DF91CF9108951F93CF93DF93182F27
:10572000C0E0D0E0623011F4CBE0D0E00E94001184
:105730008093A6014BE050E0BE018CE991E012306D
:1057400031F40E94F13EDF91CF911F9108950E94A4
:10575000E13EC091A601CC23B1F30E940011C8170D
:1057600091F30E94820F87E692E00E94181080E673
:1057700092E0C8DF80ED97E00E9421110E940D1198
:10578000E2CF8FE690E00E94181088E690E0BADF42
:1057900080910A018F5F80930A01089580919101A1
:1057A0008232D9F481EA90E00E942510A9DE0E949D
:1057B00075128091790190917A01892B69F086E9BF
:1057C00090E065DF6091790170917A0190E080E06E
:1057D00026E54DEF0C94BA1B08958BE990E0E4CFD9
:1057E000FF920F931F93CF93DF93F0909201C0919C
:1057F0007301D0917401F0FC03C08D2FDC2FC82FF2
:105800006C2F8D2F0E948E0F8C01892B59F00E94D6
:10581000C30F8D2F0E94C50F81E00E94B80E8C2F00
:105820000E94C50FF2FE38C080917B0190917C01EF
:10583000892B79F084E890E02ADF60917B017091F8
:105840007C01072E000C880B990B26E54DEF0E947A
:105850005E1C80E890E01BDF60918C0170918D01EF
:1058600080918E0190918F0126E4409190010E94D9
:10587000BA1B8091790190917A01892B69F08CE7AC
:1058800090E005DF6091790170917A0190E080E00D
:1058900024E04EEF0E94BA1B0115110599F030DE8D
:1058A00081E00E94B80E0E94C30F8AEF90E00E9430
:1058B0003910F8016281738190E080E026E54DEFB8
:1058C0000E94BA1BCDB7DEB7E5E00C94893E81E0BB
:1058D0008093D7010E94820F89E892E00E943910DC
:1058E00060919C0170919D0190E080E024E04FEF79
:1058F0000E94BA1B85E892E0CADE60919E01709119
:105900009F0190E080E024E04FEF0E94BA1B82E804
:1059100092E0BDDE6091A20170E090E080E026E4BC
:1059200044EF0E94BA1B8FE792E0B1DE6091A001C4
:105930007091A10190E080E024E04EEF0E94BA1B3C
:105940008AE792E0A4DE6091C6017091C70190E001
:1059500080E026E54DEF0E94BA1B86E792E097DED5
:105960006091C8017091C90190E080E026E54DEF9B
:105970000E94BA1B8091C00182FF05C00E94C30F24
:105980008AE20E94B80E80E792E081DE6091A40175
:10599000062E000C770B880B990B26E54DEF0E9425
:1059A0005E1C65E188EB9BE0D4CBB0E0A0E0EBEDC2
:1059B000FCE20C94603E482E362E4A0169010FEF3E
:1059C000080FF090DB0177247A947F0C0E94B10FCE
:1059D0008AE30E94B80E0E94AA0FC2E010E0D0E055
:1059E000AA24AA94BA2C2EEF222E2F0C81E0582E36
:1059F0005F1881E0781202C0CF5F1D2FE12EF12CDD
:105A0000EE0CFF1CE80CF91C612C671420F181E0FE
:105A1000781209C06091DB018091DA010E94540E76
:105A20008CE30E94B80E60E190E080E092DB813070
:105A300009F46AC0843009F473C0853009F062C08B
:105A4000D11147C0071508F474C0152D140D802F0F
:105A5000C2E0D82FCECF62E0660D81E00E94540EE6
:105A6000E1E07E1679F0812F860D8D1327C0B0926C
:105A7000DE01A092DD018EE30E94B80EB092DE013D
:105A8000A092DD01C13089F0F1E03F121AC0F701A8
:105A9000808191810E941810C114D10419F0C601AF
:105AA0000E94181080E00E94210FF2E0EF0EF11C1E
:105AB0006394061508F0A9CF672CA7CF0E94C30FE7
:105AC000E1CFF7016591749190E080E00E94801C25
:105AD000E3CF8FEF8D0F18132DC0112359F11EEF57
